:100000000C946E000C94AC090C9485090C94960029
:100010000C9496000C9496000C9496000C94960008
:100020000C9496000C9496000C9496000C949600F8
:100030000C9496000C9496000C9496000C949600E8
:100040000C943B090C94E30B0C94AA070C948407C2
:100050000C9496000C9496000C9496000C949600C8
:100060000C9496000C949600A61208130B135013D0
:10007000CE13F31325145412541254129D1400007D
:100080000000240027002A000000000023002600B2
:10009000290000000008000201000003040700001E
:1000A000000000000000010204081020408001024E
:1000B00004081020010204081020000000002500A0
:1000C00028002B00040404040404040402020202B5
:1000D00002020303030303030F19021911241FBEB5
:1000E000CFEFD8E0DEBFCDBF11E0A0E0B1E0E4EE9D
:1000F000F7E302C005900D92A634B107D9F723E0CB
:10010000A6E4B1E001C01D92AB38B207E1F710E000
:10011000CDE6D0E004C02197FE010E94AD1ACC3696
:10012000D107C9F70E94B00F0C94E51B0C94000096
:1001300080915201882309F453C08AE00E94DC07B1
:10014000019709F04DC01CBC8CB58F778CBD809198
:100150000E02F0910F027091100260911102509105
:1001600012024091130230911402209115029091D5
:100170001602E09117028F27872786278527842775
:100180008327822789278E1731F18FEF80930E0204
:1001900080910E02823891F4109206016091100253
:1001A00080910F0270E060587109660F771F90E030
:1001B00080589109880F991F0E94730B85E68EBDA8
:1001C00010925301109252018CB580648CBD8CB595
:1001D00080688CBD0895809117028111D9CFD5CF49
:1001E000089583E48093460163E00E94EB0EEAE603
:1001F000F2E0818190E0982F88272281338130932B
:100200000D02822B08958A3020F0843718F083E79E
:1002100001C08AE080930C0280936A0261E086E369
:100220000C941D0E80930B0280936A0261E085E3BB
:100230000C941D0E80930A0280936A0261E084E3AD
:100240000C941D0E23E320934601EAE6F2E090832E
:10025000818362E083E30C941D0E29E22093460122
:10026000EAE6F2E09083818362E089E20C941D0E5D
:1002700080E090E00C942D0181E2809346016DE0D6
:100280000E94EB0EEAE6F2E0818190E0982F882749
:100290002281822B9093090280930802838190E04F
:1002A000982F88272481822B90930702809306023F
:1002B000858190E0982F88272681822B90935D017D
:1002C00080935C01878190E0982F88272085822B7E
:1002D0009093690180936801818590E0982F882729
:1002E0002285822B9093650180936401838590E041
:1002F000982F88272485822B909359018093580149
:10030000089580E28093460167E00E94EB0EEAE6E2
:10031000F2E0818190E0982F88272281822B9093B0
:10032000610180936001838190E0982F8827248168
:10033000822B90935F0180935E01858190E0982FDE
:1003400088272681822B909355018093540108952C
:100350000F931F93CF93DF938FE68093460185E041
:1003600080936A0261E08FE60E941D0EC4E0D0E037
:1003700013E102E080ED97E00E942D0144E150E09E
:1003800064E170E084E190E00E947E0A10934601EF
:1003900000936A0261E083E10E941D0E64EF71E048
:1003A00080E090E00E94F5080E94380140E050E0B3
:1003B00060E070E080E090E00E947E0A10934601C9
:1003C00010926A0261E083E10E941D0E64EF71E009
:1003D00080E090E00E94F508219761F688EB9BE0B1
:1003E0000E9422016AE070E080E090E00E94F5083F
:1003F00040E050E060E070E084E190E00E947E0A1E
:1004000068EE73E080E090E00E94F508C4E0D0E080
:1004100080E50E94030160E971E080E090E00E94C5
:10042000F5088EE60E94030160E971E080E090E04B
:100430000E94F508219761F768EE73E080E090E094
:100440000E94F50840E050E064E170E080E090E058
:100450000E947E0AC4E0D0E082E30E94120160E9BB
:1004600071E080E090E00E94F5088AE50E941201A8
:1004700060E971E080E090E00E94F508219761F763
:1004800068EE73E080E090E00E94F50844E150E0FF
:1004900060E070E080E090E00E947E0AC4E0D0E07E
:1004A00088E20E941A0160E971E080E090E00E9419
:1004B000F50884E60E941A0160E971E080E090E0AE
:1004C0000E94F508219761F768EE73E080E090E004
:1004D0000E94F50847E050E067E070E087E090E0B8
:1004E000DF91CF911F910F910C947E0A1F93CF93B0
:1004F000DF93C8ECD0E012E362E370E080E090E0CC
:100500000E94F5081093460162E082E30E94EB0E20
:1005100080916B0280930502982F91709093040252
:1005200081FB992790F99093030282FB882780F939
:100530008093020280910502882311F02197E1F651
:10054000DF91CF911F9108958F929F92AF92BF92AA
:10055000CF92DF92EF92FF920F931F93CF93DF938F
:1005600088EE93E00E9422018EE10E9412010E9417
:10057000760288EB9BE00E94220168E270E080E056
:1005800090E00E94F5080E94F100EC010E945B0ED1
:1005900088E20E94120165E570E080E090E00E9430
:1005A000F5080E94F100AE01DD0F660B770B4C01E0
:1005B000092E000CAA08BB08840E951EA61EB71EA5
:1005C0000E945B0E82E30E94120165E570E080E00C
:1005D00090E00E94F5080E94F1008C01092E000CA9
:1005E000220B330B800E911EA21EB31E0E945B0EC7
:1005F0008CE30E94120165E570E080E090E00E94CB
:10060000F5080E94F1008C01092E000C220B330B1F
:10061000800E911EA21EB31E0E945B0E86E40E94F5
:10062000120165E570E080E090E00E94F5080E940C
:10063000F1008C01092E000C220B330B800E911E51
:10064000A21EB31E0E945B0E80E50E94120165E5AA
:1006500070E080E090E00E94F5080E94F100AC019B
:10066000092E000C660B770B840E951EA61EB71E76
:100670000E945B0E8AE50E94120165E570E080E051
:1006800090E00E94F5080E94F1000E945B0E84E653
:100690000E94120165E570E080E090E00E94F5089C
:1006A0000E94F100EC010E945B0E8EE60E94120196
:1006B00065E570E080E090E00E94F5080E94F1009E
:1006C000AE01DD0F660B770B6C01092E000CEE08F6
:1006D000FF08C40ED51EE61EF71E0E945B0E88E7BB
:1006E0000E94120165E570E080E090E00E94F5084C
:1006F0000E94F1008C01092E000C220B330BC00E5E
:10070000D11EE21EF31E0E945B0E82E80E941201BF
:1007100065E570E080E090E00E94F5080E94F1003D
:100720008C01092E000C220B330BC00ED11EE21ED1
:10073000F31E0E945B0E8CE80E94120165E570E0DA
:1007400080E090E00E94F5080E94F1008C01092EE3
:10075000000C220B330BC00ED11EE21EF31E0E94B2
:100760005B0E86E90E94120165E570E080E090E092
:100770000E94F5080E94F1008C01092E000C220B4A
:10078000330BC00ED11EE21EF31E0E945B0E88EEDC
:1007900093E00E9422018AE50E9412010E947602E3
:1007A00081E08C149D04AE04BF040CF480E0DF9162
:1007B000CF911F910F91FF90EF90DF90CF90BF905E
:1007C000AF909F908F9008956EE170E080E090E090
:1007D0000E94F5088FE1809346016DE00E94EB0EC8
:1007E00080916B0290E0982F882720916C02822BD9
:1007F000909309028093080280916D0290E0982FF7
:10080000882720916E02822B909307028093060224
:1008100080916F0290E0982F882720917002822BA0
:1008200090935D0180935C018091710290E0982F1C
:10083000882720917202822B90936901809368012E
:100840008091730290E0982F882720917402822B68
:1008500090936501809364018091750290E0982FD8
:10086000882720917602822B90935901809358011A
:10087000809168019091690190936701809366016E
:10088000809164019091650190936301809362016E
:1008900080915C0190915D0190935B0180935A017E
:1008A000809158019091590190935701809356017E
:1008B00085E391E00E94710E609168017091690179
:1008C000072E000C880B990B97FF03C00E94C40EE3
:1008D00003C04AE00E94830E80E491E00E94710E02
:1008E0006091640170916501072E000C880B990BD3
:1008F00097FF03C00E94C40E03C04AE00E94830E0B
:1009000082E491E00E94710E64E670E080E090E085
:100910000C94F5080F931F93CF93DF9362E070E080
:1009200080E090E00E948C0F162F88EB9BE00E94E5
:100930002201D2E068EB7BE080E090E00E948C0F27
:10094000DC01CB0188519C4FAF4FBF4F0E942D015E
:1009500060E570E080E090E00E948C0F062F60E57B
:1009600070E080E090E00E948C0FC62F60E570E0A0
:1009700080E090E00E948C0F462F50E06C2F70E0DA
:10098000802F90E00E947E0A64E670E080E090E0B4
:100990000E948C0FC62F64E670E080E090E00E9419
:1009A0008C0F062F64E670E080E090E00E948C0FD0
:1009B000462F602F8C2F0E94E90A86E90E941A01B7
:1009C000112341F086E90E94120166E07FEF8AEF71
:1009D00090E007C08EE10E9412016AEF70E086E0AD
:1009E0009FEF0E94730B60E570E080E090E00E9452
:1009F000F5080E94380160E070E080E090E00E941D
:100A0000730B66E970E080E090E00E94F50840E03A
:100A100050E060E070E080E090E00E947E0A8AE5AD
:100A20000E94120184E60E941A016AEF70E080E0E1
:100A300090E00E94F508D13011F0D1E07BCF40E08A
:100A400050E060E070E080E090E00E947E0A4FE0BD
:100A500060E080E0DF91CF911F910F910C94E90A43
:100A60000F931F93CF93DF93C6E0D0E068EB7BE05A
:100A700080E090E00E948C0FDC01CB0188519C4FFC
:100A8000AF4FBF4F0E942D0160E570E080E090E025
:100A90000E948C0F062F60E570E080E090E00E94DD
:100AA0008C0F162F60E570E080E090E00E948C0FC4
:100AB000462F50E0612F70E0802F90E00E947E0A68
:100AC00064E670E080E090E00E948C0F162F64E6F0
:100AD00070E080E090E00E948C0F062F64E670E0EA
:100AE00080E090E00E948C0F462F602F812F0E94A3
:100AF000E90A6AEF70E086E09FEF0E94730B6CE3F7
:100B000070E080E090E00E94F50868EB7BE080E018
:100B100090E00E948C0FDC01CB0188519C4FAF4FBD
:100B2000BF4F0E942D0160E570E080E090E00E94E0
:100B30008C0F062F60E570E080E090E00E948C0F43
:100B4000162F60E570E080E090E00E948C0F462F49
:100B500050E0612F70E0802F90E00E947E0A64E6F2
:100B600070E080E090E00E948C0F162F64E670E049
:100B700080E090E00E948C0F062F64E670E080E039
:100B800090E00E948C0F462F602F812F0E94E90A6F
:100B900066E07FEF8AEF90E00E94730B6CE370E0F9
:100BA00080E090E00E94F508219709F05FCF60E0B7
:100BB00070E080E090E00E94730B0E94380140E0FA
:100BC00050E060E070E080E090E00E947E0A4FE03C
:100BD00060E080E0DF91CF911F910F910C94E90AC2
:100BE000FC01918D828D981761F0828DDF01A80F35
:100BF000B11D5D968C91928D9F5F9F73928F90E057
:100C000008958FEF9FEF0895FC01918D828D9817C5
:100C100031F0828DE80FF11D858D90E008958FEF02
:100C20009FEF0895FC01918D228D892F90E0805CCB
:100C30009F4F821B91098F73992708958AEC92E048
:100C40000E94120621E0892B09F420E0822F0895EA
:100C5000FC01848DDF01A80FB11DA35ABF4F2C9159
:100C6000848D90E001968F739927848FA689B78928
:100C70002C93A089B1898C9180648C93938D848D01
:100C8000981306C00288F389E02D80818F7D8083D0
:100C90000895EF92FF920F931F93CF93DF93EC0190
:100CA00081E0888F9B8D8C8D981305C0E889F98928
:100CB000808185FD24C0F62E0B8D10E00F5F1F4F45
:100CC0000F731127E02E8C8DE8120CC00FB607FCB5
:100CD000FACFE889F989808185FFF5CFCE010E949E
:100CE0002806F1CF8B8DFE01E80FF11DE35AFF4F6F
:100CF000F0820B8FEA89FB898081806207C0EE89D0
:100D0000FF896083E889F98980818064808381E03C
:100D100090E0DF91CF911F910F91FF90EF90089598
:100D2000CF93DF93EC01888D8823C9F0EA89FB8992
:100D3000808185FD05C0A889B9898C9186FD0FC089
:100D40000FB607FCF5CF808185FFF2CFA889B9895E
:100D50008C9185FFEDCFCE010E942806E7CFDF9171
:100D6000CF91089580E090E0892B29F00E941E0623
:100D700081110C9400000895833081F028F48130B3
:100D800099F08230A1F008958730A9F08830B9F049
:100D90008430D1F4809180008F7D03C080918000E9
:100DA0008F7780938000089584B58F7702C084B5D3
:100DB0008F7D84BD08958091B0008F7703C08091AE
:100DC000B0008F7D8093B0000895089584ED8093E6
:100DD000BC008091BC0084FDFCCF1092A602089557
:100DE0000895E091690280916802E81730F4F0E01C
:100DF000E85BFD4F808190E008958FEF9FEF0895AD
:100E00009091690280916802981750F4E92FF0E000
:100E1000E85BFD4F208130E09F5F9093690202C044
:100E20002FEF3FEFC90108958091680290E0209173
:100E30006902821B91090895CF92DF92EF92FF928F
:100E40000F931F93CF93DF937C018A018091A702B8
:100E5000882389F0EB016B01C40ED51ECC15DD058E
:100E6000F1F06991D701ED91FC910190F081E02DB5
:100E7000C7010995F3CF842F413288F49091A602DF
:100E8000943069F440933E02FB012EE132E0D90137
:100E90009A2F921B981718F491919D93F9CFC8013E
:100EA000DF91CF911F910F91FF90EF90DF90CF9046
:100EB00008952091A7022223C9F02091C90220326F
:100EC00040F021E030E0FC013383228380E090E0B9
:100ED00008958091A802E82FF0E0E755FD4F608368
:100EE0008F5F8093A8028093C90209C08091A602F7
:100EF000843029F481E080933E0260931E0281E0F9
:100F000090E008950E94E01B1F920F920FB60F927F
:100F100011242F933F934F935F936F937F938F93FE
:100F20009F93AF93BF93EF93FF938AEC92E00E945D
:100F30002806FF91EF91BF91AF919F918F917F9183
:100F40006F915F914F913F912F910F900FBE0F9036
:100F50001F9018951F920F920FB60F9211242F9386
:100F60008F939F93EF93FF93E091DA02F091DB026E
:100F70008081E091E002F091E10282FD12C0908157
:100F80008091E3028F5F8F732091E402821751F00A
:100F9000E091E302F0E0E653FD4F958F8093E3028A
:100FA00001C08081FF91EF919F918F912F910F90C0
:100FB0000FBE0F901F901895CF93DF93282F30E02E
:100FC000F901EE56FF4F8491F901EA55FF4FD49194
:100FD000F901EC53FF4FC491CC2391F081110E9491
:100FE000BC06EC2FF0E0EE0FFF1FE857FF4FA59176
:100FF000B491EC91ED2381E090E021F480E002C017
:1010000080E090E0DF91CF9108951F93CF93DF931D
:10101000282F30E0F901EE56FF4F8491F901EA558F
:10102000FF4FD491F901EC53FF4FC491CC23C9F089
:10103000162F81110E94BC06EC2FF0E0EE0FFF1F6F
:10104000E654FF4FA591B4918FB7F894111105C0E4
:101050009C91ED2FE095E92302C0EC91ED2BEC93F0
:101060008FBFDF91CF911F910895CF93DF9390E0D1
:10107000FC01EA55FF4F2491FC01EC53FF4F849192
:10108000882361F190E0880F991FFC01E258FF4F1F
:10109000C591D491FC01E654FF4FA591B491611123
:1010A00009C09FB7F8948881209582238883EC91AA
:1010B0002E230BC0623061F49FB7F8943881822FE1
:1010C000809583238883EC912E2B2C939FBF06C0A1
:1010D0008FB7F894E8812E2B28838FBFDF91CF91B3
:1010E00008951F93CF93DF93182FEB0161E00E94C7
:1010F0003508209711F460E004C0CF3FD10539F4E2
:1011000061E0812FDF91CF911F910C940508E12FB1
:10111000F0E0EE56FF4FE491E330F9F048F4E130AF
:10112000B9F0E230A1F584B5806284BDC8BD34C099
:10113000E730E9F0E83019F1E43049F580918000BA
:10114000806280938000D0938B00C0938A0024C07B
:1011500084B5806884BDC7BD1FC080918000806851
:1011600080938000D0938900C093880015C080913F
:10117000B00080688093B000C093B3000DC0809130
:10118000B00080628093B000C093B40005C0C03846
:10119000D1050CF0B5CFAFCFDF91CF911F9108955E
:1011A0003FB7F8948091440290914502A091460285
:1011B000B091470226B5A89B05C02F3F19F00196B4
:1011C000A11DB11D3FBFBA2FA92F982F8827820FCD
:1011D000911DA11DB11DBC01CD0143E0660F771F1C
:1011E000881F991F4A95D1F708958F929F92AF92C9
:1011F000BF92CF92DF92EF92FF926B017C010E942F
:10120000D0084B015C01C114D104E104F104F1F0F8
:101210000E94D008DC01CB0188199909AA09BB09F1
:10122000883E9340A105B10570F321E0C21AD108B0
:10123000E108F10888EE880E83E0981EA11CB11C1D
:10124000C114D104E104F10419F7DDCFFF90EF9050
:10125000DF90CF90BF90AF909F908F9008952FB761
:10126000F894609140027091410280914202909105
:1012700043022FBF08951F920F920FB60F921124B1
:101280002F933F938F939F93AF93BF93809140028F
:1012900090914102A0914202B091430230913F02ED
:1012A00026E0230F2D3720F40296A11DB11D05C0A5
:1012B00029E8230F0396A11DB11D20933F028093BF
:1012C000400290934102A0934202B0934302809166
:1012D000440290914502A0914602B09147020196C6
:1012E000A11DB11D8093440290934502A093460234
:1012F000B0934702BF91AF919F918F913F912F91F2
:101300000F900FBE0F901F9018951F920F920FB65F
:101310000F9211242F933F934F935F936F937F937B
:101320008F939F93AF93BF93EF93FF93E091090146
:10133000F0910A010995FF91EF91BF91AF919F91B3
:101340008F917F916F915F914F913F912F910F906E
:101350000FBE0F901F9018951F920F920FB60F920D
:1013600011242F933F934F935F936F937F938F93AA
:101370009F93AF93BF93EF93FF93E0910701F09199
:1013800008010995FF91EF91BF91AF919F918F91C6
:101390007F916F915F914F913F912F910F900FBE71
:1013A0000F901F9018958091BC0087FF76C08091A8
:1013B000B900887F883211F170F48031E1F030F4A7
:1013C000882309F466C08830B1F008958831B1F0FF
:1013D000803239F108958034B9F128F4803309F16D
:1013E000883311F10895803519F18835C9F18834B1
:1013F00009F053C050C08091810210C09091A302A7
:101400008091A2029817C0F5E091A30281E08E0FAF
:101410008093A302F0E0EE57FD4F80818093BB00E4
:1014200019C08093A40237C08093A40284EC2CC01E
:10143000E091A30281E08E0F8093A3028091BB0014
:10144000F0E0EE57FD4F80839091A3028091A202BD
:10145000981710F484EC01C084E88093BC000895D0
:10146000E091A30281E08E0F8093A3028091BB00E4
:10147000F0E0EE57FD4F80838091A50281110BC0F3
:1014800081E08093800284EA8093BC001092A602DF
:1014900008951092A4020C94E60608951092A602F4
:1014A00081E08093A5021092800261E082E10E94B7
:1014B000050861E083E10E940508E9EBF0E0808126
:1014C0008E7F808380818D7F808382E08093B800CF
:1014D00084E48093BC000895FB0160810E94371A68
:1014E00081E090E00895CF93DF93EB010E942F1AE3
:1014F000888381E090E0DF91CF910895CF92DF92D1
:10150000EF92FF92CF93DF93C42ED12CE12CF12CDC
:10151000D62AE82AC0E0D0E080917303909174034A
:10152000C817D90728F4B701A601CE010E94BA0D49
:101530002196CB31D10581F78091790390917A037F
:10154000892B41F0DF91CF91FF90EF90DF90CF900A
:101550000C94820CDF91CF91FF90EF90DF90CF90B1
:101560000895362FE42F8C3191052CF497FF05C098
:1015700080E090E002C08BE190E060917303709195
:1015800074038617970740F4422F50E060E070E044
:101590005E2B632B0E94BA0D8091790390917A03A0
:1015A000892B11F00C94820C089520E030E040E08B
:1015B00050E060E070E082E090E00E94B10A20E03C
:1015C00030E040E050E060E070E081E090E00C94BA
:1015D000B10AEF92FF920F931F93CF93DF93E42E04
:1015E000F12C062F10E0C82FD0E09701A801BE0112
:1015F00082E090E00E94B10A9701A801BE0181E05B
:1016000090E0DF91CF911F910F91FF90EF900C949C
:10161000B10AEF92FF920F931F93CF93DF938C0148
:101620000D5F1F4FEC012F96CB31D10514F0CAE1AD
:10163000D0E00F30110514F00EE010E02FE0E22EA4
:10164000F12C20E030E040E050E060E070E0C701C5
:101650000E94B10A8FEFE81AF80A8BE1E816F1044C
:1016600081F793E0E92EF12C20E030E040E050E0FB
:1016700060E070E0C7010E94B10A8FEFE81AF80A33
:101680008FE0E816F10481F78FE0E82EF12CEC16DC
:10169000FD066CF420E030E04DEC50E062E370E0D9
:1016A000C7010E94B10A8FEFE81AF80AF0CFC3E031
:1016B000D0E0C017D1075CF420E030E04DEC50E002
:1016C00062E370E0CE010E94B10A2196F2CF68EB8E
:1016D0007BE080E090E0DF91CF911F910F91FF9030
:1016E000EF900C94F5080F931F93CF93DF938C0129
:1016F000EB018F3F910509F03CF401308FEF1807A3
:101700002CF401E01FEF02C00FEF10E010931D0258
:1017100000931C02CF3FD10509F03CF4C1308FEF9C
:10172000D8072CF4C1E0DFEF02C0CFEFD0E0D093B8
:101730001B02C0931A0217FF02C060E001C061E003
:101740008EE00E940508D7FF02C061E001C060E0A2
:101750008FE00E940508B80117FF03C071956195DD
:10176000710986E00E947108BE01D7FF03C0719520
:101770006195710985E0DF91CF911F910F910C94D4
:101780007108CF9380911902811113C08EE6809366
:10179000460110926A02C1E0C0936B0262E00E94AF
:1017A0001D0EC093190265E070E080E090E00E9499
:1017B000F50888E00E94DC0721E0892B09F020E091
:1017C000822FCF9108951F920F920FB60F9211247E
:1017D0008F93EF93FF93E0915301F0E08EB5E25FBA
:1017E000FD4F8083E0915301F0E0E85BFE4F808184
:1017F0008EBD81E080935201809153018F5F809371
:101800005301809153018B3020F01CBC8CB58F7735
:101810008CBDFF91EF918F910F900FBE0F901F9095
:1018200018950F931F93CF93DF931F92CDB7DEB719
:101830001091C90200918603113208F052C08091C4
:10184000A602882319F00E94D309F9CF92E0909361
:10185000A60291E09093A5029FEF9093A4021092AC
:10186000A3021093A202A9EAB2E022E832E0F90151
:101870009E2F921B911718F49D919193F9CF10927E
:10188000810220918102902F990F922B90938102D7
:1018900090918002913059F41092800290918102CF
:1018A0009093BB0095EC9093BC0094EC01C094EE37
:1018B0009093BC009091A602923029F489830E94F3
:1018C000D3098981F7CF9091A4029F3F79F080914D
:1018D000A402803241F08091A402803331F084E090
:1018E00005C081E003C082E001C083E01092A8023D
:1018F0001092C9021092A7020F90DF91CF911F9111
:101900000F9108950F931F93CF93DF93CDB7DEB759
:1019100029970FB6F894DEBF0FBECDBF0E94D00846
:1019200000917F0310918003209181033091820305
:10193000DC01CB01801B910BA20BB30BC297A1055D
:10194000B10560F3F89480917503909176039A83C2
:101950008983E0917903F0917A03DF011196808108
:10196000898780917E03E0918303F091840381FF56
:10197000BBC01B82EB32F10509F058C09BB18091CE
:101980008503982B98879BB1809589238F838F81BE
:101990008C83898587FF02C088858C8358856F81F9
:1019A00049853C812B8189819A815BB9262F3BB97E
:1019B00000C046FD252F6BB900C05BB9362F2BB98F
:1019C00000C045FD352F6BB900C05BB9262F3BB970
:1019D00000C044FD252F6BB900C05BB9362F2BB971
:1019E00000C043FD352F6BB900C05BB9262F3BB952
:1019F00000C042FD252F6BB900C05BB9362F2BB953
:101A000000C041FD352F6BB900C05BB9262F3BB933
:101A100000C040FD252F6BB901975BB9362F2BB95C
:101A20004D9147FD352F6BB901F65AC0B59709F0B6
:101A30008BC095B180918503982B988795B180953F
:101A400089238F838F818C83898587FF02C0888556
:101A50008C8358856F8149853C812B8189819A814E
:101A600055B9262F35B900C046FD252F65B900C0F0
:101A700055B9362F25B900C045FD352F65B900C0D1
:101A800055B9262F35B900C044FD252F65B900C0D2
:101A900055B9362F25B900C043FD352F65B900C0B3
:101AA00055B9262F35B900C042FD252F65B900C0B4
:101AB00055B9362F25B900C041FD352F65B900C095
:101AC00055B9262F35B900C040FD252F65B90197BE
:101AD00055B9362F25B94D9147FD352F65B901F61A
:101AE00049873C832B832EC0908180918503982B5E
:101AF00098879081809589238F838F818E8388E05A
:101B00008D8358856F8149853D812E8189819A8198
:101B1000508347FD252F2083262F3A9531F0441F0F
:101B2000608300C000C000C0F3CF6083000038E0D5
:101B30004D91019769F7F0938403E09383034987FC
:101B40003D832E839A83898378940E94D008609382
:101B50007F0370938003809381039093820329967F
:101B60000FB6F894DEBF0FBECDBFDF91CF911F91AE
:101B70000F9108958F929F92AF92BF92CF92DF9272
:101B8000EF92FF924B01AA24BB24F82DC52ED62E2E
:101B9000E72EFF24EC2D342F20917803222361F0CF
:101BA000829E40011124F92DC29E60011124ED2D69
:101BB000429FA0011124352FAC01440F551F840F03
:101BC000951F4091790350917A03840F951F2091BE
:101BD0007B03DC01A20FB11DFC9320917C03DC018F
:101BE000A20FB11DEC9320917D03FC01E20FF11DCA
:101BF0003083FF90EF90DF90CF90BF90AF909F9099
:101C00008F900895CF93DF93EB0191E09093A7021B
:101C10009BE6909386031092A8021092C902682F47
:101C200087E693E00E945907688187E693E00E9467
:101C30005907DF91CF910C94110CEF92FF920F9303
:101C40001F93CF93DF931F92CDB7DEB7062F10926D
:101C50006902109268021092A8021092C902898348
:101C60000E944E0A91E09093A70292E3909386031C
:101C70008981682F87E693E00E94590710E0E02EE3
:101C8000F12C812F012E000C990B8E159F0554F419
:101C9000FC01E659FD4F608187E693E00E945907F9
:101CA0001F5FEFCF0F90DF91CF911F910F91FF90AA
:101CB000EF900C94110C8C3D95404CF480ED97E026
:101CC0000E942D0140E060E584E60E94E90A69E196
:101CD00070E080E090E00E94F5080E9438010C94CA
:101CE000D50A009769F0FC0101900020E9F73197CF
:101CF000AF01481B590BBC018AEC92E00C94610FB8
:101D000080E090E008958F929F92AF92BF920F93E0
:101D10001F93CF93DF93CDB7DEB7A1970FB6F8949B
:101D2000DEBF0FBECDBF19A2423008F44AE08E01DB
:101D30000F5D1F4F842E912CA12CB12CA501940175
:101D40000E94771AE62FB901CA0101501109EA3041
:101D500014F4E05D01C0E95CD801EC93232B242B43
:101D6000252B61F7C8010E94710EA1960FB6F89459
:101D7000DEBF0FBECDBFDF91CF911F910F91BF90FE
:101D8000AF909F908F900895CF92DF92EF92FF9245
:101D9000CF93DF936B017C01E091CA02F091CB02FB
:101DA0000190F081E02D6DE28AEC92E00995EC0162
:101DB00066277727CB016C197D098E099F094AE0B8
:101DC0000E94830E8C0F9D1FDF91CF91FF90EF90AB
:101DD000DF90CF900895CF93DF93C62F91E090933B
:101DE000A70292E3909386031092A8021092C90270
:101DF000682F87E693E00E9459070E94110C80E645
:101E000090E00197F1F78091A602882319F00E94D3
:101E1000D309F9CFC13208F0C0E281E08093A60275
:101E20008093A5029FEF9093A4021092A3029C0FAF
:101E30009093A202809381028091810284668093B4
:101E4000810280918002813041F410928002809161
:101E500081028093BB0084EC01C084EE8093BC00BF
:101E60008091A602813019F40E94D309F9CF8091A4
:101E7000A3028C1710F4C091A302A2E8B2E028E4F8
:101E800032E0F9018E2F821B8C1718F48D9181930B
:101E9000F9CF10926902C0936802D0E08091690284
:101EA000C81759F087E693E00E940007ED2FF0E095
:101EB000E659FD4F8083DF5FF1CF8D2FDF91CF910A
:101EC0000895CF92DF92EF92FF920F931F93CF93DB
:101ED000DF936C017A018B01C0E0D0E0CE15DF0505
:101EE00089F0D8016D918D01D601ED91FC910190A1
:101EF000F081E02DC6010995892B11F47E0102C005
:101F00002196ECCFC701DF91CF911F910F91FF90E8
:101F1000EF90DF90CF900895CF93DF9300D000D063
:101F2000CDB7DEB7611571058105910579F09B018B
:101F3000AC0169833A834B835C830E94F819298141
:101F40003A814B815C810E94451A03C060E070E0D9
:101F5000CB010F900F900F900F90DF91CF910895CC
:101F6000CF93DF93CDB7DEB765970FB6F894DEBF9A
:101F70000FBECDBF789484B5826084BD84B5816086
:101F800084BD85B5826085BD85B5816085BD809144
:101F90006E00816080936E001092810080918100BC
:101FA00082608093810080918100816080938100B4
:101FB000809180008160809380008091B100846076
:101FC0008093B1008091B00081608093B0008091D7
:101FD0007A00846080937A0080917A008260809396
:101FE0007A0080917A008E7F80937A0080917A00C7
:101FF000806880937A001092C10061E087E00E94BF
:10200000350860E087E00E94050840E050E060E0AD
:1020100070E080E090E00E947E0A60E08AE00E942A
:10202000350860E08BE00E94350860E08DE00E949A
:10203000350861E08CE00E94350860E08CE00E9489
:10204000050862E082E00E94350860E089E00E94B5
:102050003508E091DA02F091DB0282E08083E091C2
:10206000D602F091D7021082E091D802F091D90205
:1020700010E110831092E202E091DE02F091DF02A3
:1020800086E08083E091DC02F091DD028081806156
:102090008083E091DC02F091DD02808188608083A2
:1020A000E091DC02F091DD02808180688083E09124
:1020B000DC02F091DD0280818F7D808360E087E02B
:1020C0000E94050861E087E00E94350810926902CD
:1020D000109268021092A8021092C9020E944E0A41
:1020E0001D83BE016B5F7F4F82E20E94020E8FE074
:1020F0008C83BE016C5F7F4F80E20E94020EBE01A6
:102100006D5F7F4F89EF93E00E94730ABE016E5F9F
:102110007F4F8AEF93E00E94730ABE016F5F7F4F8B
:102120008BEF93E00E94730A909101018B819111D2
:1021300003C0809301010AC090910101891731F019
:1021400061E071E089EF93E00E946C0A90916A016E
:102150008A81911103C080936A010AC090916A013B
:10216000891731F06AE671E08AEF93E00E946C0A09
:10217000909100018981911103C0809300010AC0F0
:1021800090910001891731F060E071E08BEF93E0EE
:102190000E946C0A80910101815880936A0261E07B
:1021A00087E30E941D0E80916A01815880936A0224
:1021B00061E088E30E941D0E8091000181588093A8
:1021C0006A0261E089E30E941D0E6BE6E62E61E083
:1021D000F62E0CEF13E0C8010E942F1AF70181932D
:1021E0007F010F5F1F4F0115F4E01F07A1F7C0909B
:1021F0006B01D0906C01E0906D01F0906E012AE9C6
:1022000039E949E55FE3C701B6010E94A81A87FDD5
:1022100012C023E333E343E95FE3C701B6010E9441
:10222000061A181644F0C0920201D0920301E092FF
:102230000401F09205010E94380185E18093460176
:1022400065E00E94EB0E80916B0290E0982F88274A
:1022500020916C02822B9093720180937101809186
:102260006D0290E0982F882720916E02822B909328
:10227000700180936F010E942F0960937901709320
:102280007A0180937B0190937C010E942F096093D7
:10229000740170937501809376019093770181E0CA
:1022A0008093730185E68EBD10924801109249011A
:1022B00010924A0110924B0110924C0110924D0164
:1022C00010924E0110924F011092500180914801DE
:1022D000E091490170914A0160914B0150914C018C
:1022E00040914D0130914E0120914F01909150014C
:1022F0008E27872786278527842783278227892774
:102300008093510110925301109252018CB5806458
:102310008CBD8CB580688CBD40E050E060E070E022
:1023200080E090E00E947E0A88EE93E00E942D01FA
:1023300042E360E088E20E94E90A62E370E080E044
:1023400090E00E94F50880ED97E00E942D0162E385
:1023500070E080E090E00E94F50888EB9BE00E942E
:102360002D0162E370E080E090E00E94F50880EAD1
:102370009FE00E942D0164E670E080E090E00E9402
:10238000F5080E9438010E94D50A88EB9BE00E9464
:10239000220184E60E941A018AE50E9412018AE065
:1023A0000E9403010E9481016091540170915501C6
:1023B000072E000C880B990B61157105810591059D
:1023C00011F00E94FD190E94E40311E010936A02CB
:1023D00061E081E40E941D0E45E050E060E070E0A5
:1023E00080E090E00E947E0A2AE030E040E050E089
:1023F00060E070E08EE090E00E94B10A2AE030E0F8
:1024000040E050E060E070E08AE190E00E94B10AB4
:102410008091060190E00E94090B0E94C10B882365
:10242000C9F10E94A801109378018FEF80930601F3
:1024300031C00E94C10B882329F14AE050E06AE0D4
:1024400070E080E090E00E947E0A60E070E080E052
:1024500090E00E94730B0E9438018091060190E089
:102460000E94090B64E670E080E090E00E94F508AD
:102470000E94C10B8111FCCF64E670E080E090E027
:102480000E94F5080E94980062E370E080E090E00E
:102490000E94F50880910601813059F239C00E94EE
:1024A000F10080329340C8F10E94C10B882341F1B2
:1024B0004AE050E06AE070E080E090E00E947E0A2E
:1024C000F2E0F09306018091060190E00E94090B72
:1024D00064E670E080E090E00E94F50860E070E063
:1024E00080E090E00E94730B0E9438010E94C10BB3
:1024F0008111FCCF64E670E080E090E00E94F50876
:102500000E94980062E370E080E090E00E94F5088D
:1025100080910601823019F211C36BE070E080E017
:1025200090E00E948C0FDC01CB010196A11DB11D32
:10253000092E000CAA0BBB0BFC013197EB30F10507
:1025400008F0B2CFEC5CFF4F0C94AD1A88EE93E02C
:102550000E942D0148E760E080E00E94E90A62E302
:1025600070E080E090E00E94F50880ED97E00E9426
:102570002D0162E370E080E090E00E94F50888EBB6
:102580009BE00E942D0162E370E080E090E00E94F9
:10259000F50880EA9FE00E942D0164E670E080E08B
:1025A00090E00E94F50848E768E780E00E94E90AA9
:1025B00062E370E080E090E00E94F50880EA9FE02E
:1025C0000E942D0162E370E080E090E00E94F50837
:1025D00088E893E10E942D0162E370E080E090E0E2
:1025E0000E94F50880E797E10E942D0164E670E003
:1025F00080E090E00E94F5080E9438014AE060E027
:1026000080E00E94E90A64EF71E080E090E045C05C
:102610000E94300549CF86E990E00E9422014CE3F8
:1026200060E084E60E94E90A80EA9FE00E942D01B2
:102630008FE00E941A010E9476020E94380188EB06
:102640009BE00E94220188E20E9403016EEE72E08C
:1026500080E090E00E94F50886E990E00E94220167
:1026600083E70E9403010E94760288E20E94030130
:102670000E94760288EB9BE00E9422018AE00E9481
:10268000030184E60E941A0144E160E080E00E94B8
:10269000E90A6CE271E080E090E00E94F50804CF66
:1026A0000AE010E0312C64E670E080E090E00E94E7
:1026B0008C0F6B017C01E2E3CE0ED11CE11CF11CFE
:1026C0006CEA7DE080E090E00E948C0F4B015C01A1
:1026D00068E770E080E090E00E948C0F262F68E7AA
:1026E00070E080E090E02D8B0E948C0F362F68E721
:1026F00070E080E090E03C8B0E948C0F262E68E713
:1027000070E080E090E00E948C0F2B013C0168E7B4
:1027100070E080E090E00E948C0F6E837F8388875A
:10272000998768E770E080E090E00E948C0FAB0131
:102730006E817F81C2010E947E0A422D3C89632FF7
:102740002D89822F0E94E90AD501C40188519C4F2E
:10275000AF4FBF4F0E942D01882799278C199D09E3
:10276000332031F0BC01C6010E94730B312C05C02F
:10277000B6010E94730B3324339464E670E080E06A
:1027800090E00E94F5080150110909F08CCF60E03B
:1027900070E080E090E00E94730BBFC040E060E01A
:1027A00088EC0E94E90A88EE93E00E94220188EEFC
:1027B00093E00E942D018CE80E9412010E94760293
:1027C00088E20E9412010E9476028CE80E941201A7
:1027D0000E94760288E20E9412010E9476028AE537
:1027E0000E94120124C040E068EC80E00E94E90AE7
:1027F00088EE93E00E94220188EB9BE00E942D016D
:1028000086E90E941A010E94760282E30E941A0160
:102810000E94760286E90E941A010E94760282E3F3
:102820000E941A010E94760284E60E941A010E9408
:10283000760288EB9BE00E9422014FE060E080E09E
:102840000E94E90A0E9438012FCE0FE010E060EAF2
:102850007FE080E090E00E948C0F6B017C0168E7D4
:1028600070E080E090E00E948C0F2B013C0168E753
:1028700070E080E090E00E948C0F6E837F838887F9
:10288000998768E770E080E090E00E948C0F9B01E0
:10289000AC0168E770E080E090E02D8B3C8B4A8BC8
:1028A0005B8B0E948C0F6A877B878C879D8768E78C
:1028B00070E080E090E00E948C0F6E877F87888BAD
:1028C000998B68E770E080E090E00E948C0F4B01EC
:1028D0005C012D893C894E815F81B20181E090E0ED
:1028E0000E94B10A94014E855F856A857B8582E0EE
:1028F00090E00E94B10AD701C60188519C4FAF4FAA
:10290000BF4F0E942D0162E370E080E090E00E94E2
:10291000F5080150110909F09ACF0E94380140E0F2
:1029200050E060E070E080E090E00E947E0A44E1C8
:1029300060E080E00E94E90AB7CD0E948A04B4CD2D
:102940000E9498000E942F090091790110917A014C
:1029500020917B0130917C010053184F2F4F3F4F46
:10296000601771078207930708F078C00E943C0146
:1029700065E070E080E090E00E94F5084091680119
:102980005091690180916601909167019C012253E9
:102990003109241735070CF0CDC120916801309121
:1029A0006901C296281739070CF0C4C1409164012F
:1029B0005091650180916201909163019C012253C5
:1029C0003109241735070CF0E9C2209164013091D8
:1029D0006501C296281739070CF0E0C20E94F10089
:1029E000803D974008F4C0C00E94C10B882309F4C1
:1029F000A7CF4AE050E06AE070E080E090E00E94FB
:102A00007E0A83E08093060140E050E060E070E0E1
:102A100080E090E00E947E0A8091060190E00E9492
:102A2000090B40E06AE08AE00E94E90A64E670E08F
:102A300080E090E00E94F50860E070E080E090E0C7
:102A40000E94730B0E9438010E94C10B8111FCCFC0
:102A500064E670E080E090E00E94F5086CE070E0D1
:102A600080E090E00E948C0F623009F4AFC06330C8
:102A700009F4C1C0613009F04BC068E87FEF88E815
:102A80009FEF0E94730B6CE271E080E090E00E9487
:102A9000F50860E070E080E090E00E94730B6FEF5B
:102AA00070E081E09FEF0E94730B44E650E060E02D
:102AB00070E084E690E00E947E0A46E962E380E0EE
:102AC0000E94E90A08EE13E0C8010E942D0164E6A5
:102AD00070E080E090E00E94F5080C591F4F043030
:102AE000E0E11E0789F760E070E080E090E00E947E
:102AF000730B0E94380140E050E060E070E080E03D
:102B000090E00E947E0A44E160E080E00E94E90AD1
:102B100062E370E080E090E00E94F5080E942F09D7
:102B20006093790170937A0180937B0190937C018B
:102B300060E070E080E090E00E94730B80910601FD
:102B4000833009F06DC06AE570E08AE590E00E948C
:102B5000730B0E942F096093790170937A0180931F
:102B60007B0190937C01EECE60E070E080E090E02D
:102B70000E94730B0E94A402882329F064E670E08F
:102B80008CE99FEF04C06CE97FEF84E690E00E943F
:102B9000730B6EEE72E080E090E00E94F50860E05A
:102BA00070E080E090E00E94730B0E942F09609318
:102BB000790170937A0180937B0190937C016AE59F
:102BC00070E08AE590E00E94730B0ECF68E87FEF1B
:102BD00088E89FEF0E94730B6CE271E080E090E068
:102BE0000E94F50860E070E080E090E00E94730BC6
:102BF0000E9430058DCF64EC7FEF84EC9FEF0E9444
:102C0000730B66E970E080E090E00E94F50860E0F8
:102C100070E080E090E00E94730B0E948A0478CFFD
:102C200014E080910601843009F077C040E06AE04A
:102C30008AE00E94E90A0E9481012091600130919E
:102C4000610180915E0190915F01821793072CF4DE
:102C50006CE870E088E290E004C068E270E08CE824
:102C600090E00E94730B0E94F100803D974008F5B0
:102C700060E070E080E090E00E94730B0E94A4028C
:102C8000882329F064E670E08CE99FEF04C06CE9CA
:102C90007FEF84E690E00E94730B6EEE72E080E0BE
:102CA00090E00E94F50860E070E080E090E00E9413
:102CB000730B0E94C10B882339F14AE050E06AE0AF
:102CC00070E080E090E00E947E0A60E070E080E0CA
:102CD00090E00E94730B0E943801109306018091CE
:102CE000060190E00E94090B64E670E080E090E04D
:102CF0000E94F5080E94C10B8111FCCF64E670E0D0
:102D000080E090E00E94F5080E94980062E370E085
:102D100080E090E00E94F50884CF809178018823BC
:102D200031F00E94C10B8823E1F30E94A8010E94A8
:102D3000B206B0CB68E87FEF88E89FEF0E94730B84
:102D400068EC70E080E090E00E94F50866EA7FEFB2
:102D500084EC9FEF0E94730B85E594E00E942D01A7
:102D600088E790E00E9422018DE20E9412018EE12C
:102D70000E941A0160E570E080E090E00E948C0FF4
:102D8000062F60E570E080E090E00E948C0F162F27
:102D900060E570E080E090E00E948C0F462F50E0EC
:102DA000612F70E0802F90E00E947E0A64E670E060
:102DB00080E090E00E948C0F162F64E670E080E0C7
:102DC00090E00E948C0F062F64E670E080E090E0B7
:102DD0000E948C0F462F602F812F0E94E90A93E3F7
:102DE000892E912C0E943C0180915C0190915D01A3
:102DF000E0905A01F0905B01570122E3A21AB1085A
:102E0000A816B9060CF042C080915C0190915D015A
:102E1000E2E3EE0EF11C8E159F05C4F5809158017A
:102E20009091590100915601109157016801F2E308
:102E3000CF1AD108C816D9064CF580915801909147
:102E400059010E5C1F4F8017910704F568E070E090
:102E500080E090E00E94F50821E0821A910809F0D4
:102E6000C1CF0E94380160EB7FEF80E590E00E94C7
:102E7000730B37E4832E912C0E943C0180915C01FE
:102E800090915D01A816B9060CF440C062E370E0B1
:102E900082E390E00E94730B68EC70E080E090E0C9
:102EA0000E94F50860E070E080E090E00E94730B03
:102EB0000E9438010E94E4038AE50E94120184E620
:102EC0000E941A010E94760288EB9BE00E94220178
:102ED00040E050E060E070E080E090E00E947E0A18
:102EE00044E164E180E00E94E90A0E942F096093B6
:102EF000790170937A0180937B0190937C016AE55C
:102F000070E08AE590E00E94730B50CD80915C01E7
:102F100090915D018E159F050CF0B8CF80915801FE
:102F200090915901C816D9060CF0B0CF8091580184
:102F300090915901801791070CF0A8CF68E070E0DC
:102F400080E090E00E94F50881E0881A910809F07D
:102F500093CF60E070E080E090E00E94730B8AE520
:102F60000E94120184E60E941A010E94760288EBF8
:102F70009BE00E94220162E370E080E090E00E940A
:102F8000F50840E050E060E070E080E090E00E94F2
:102F90007E0A0E94E40344E160E0A4CF68E87FEF8A
:102FA00088E89FEF0E94730B68EC70E080E090E08F
:102FB0000E94F50864EC7FEF86EA9FEF0E94730B96
:102FC00085E594E00E942D0188E790E00E942201AF
:102FD00087E80E9412018EE10E941A0160E570E00C
:102FE00080E090E00E948C0F062F60E570E080E0AA
:102FF00090E00E948C0F162F60E570E080E090E07A
:103000000E948C0F462F50E0612F70E0802F90E0DF
:103010000E947E0A64E670E080E090E00E948C0FDF
:10302000162F64E670E080E090E00E948C0F062F7F
:1030300064E670E080E090E00E948C0F462F602FE5
:10304000812F0E94E90A83E3882E912C0E943C0183
:1030500080915C0190915D0100915A0110915B019A
:10306000680122E3C21AD108C816D9060CF042C082
:1030700080915C0190915D010E5C1F4F801791075C
:10308000CCF58091580190915901E0905601F09053
:1030900057015701E2E3AE1AB108A816B90654F574
:1030A0008091580190915901F2E3EF0EF11C8E15B9
:1030B0009F0504F568E070E080E090E00E94F5086C
:1030C000E1E08E1A910809F0C1CF0E94380160E555
:1030D00070E080EB9FEF0E94730B27E4822E912C0F
:1030E0000E943C0180915C0190915D01C816D90657
:1030F0000CF440C062E370E082E390E00E94730B46
:1031000068EC70E080E090E00E94F50860E070E01C
:1031100080E090E00E94730B0E9438010E94E4035B
:103120008AE50E94120184E60E941A010E9476023A
:1031300088EB9BE00E94220140E050E060E070E0FC
:1031400080E090E00E947E0A44E164E180E00E9419
:10315000E90A0E942F096093790170937A018093A4
:103160007B0190937C016AE570E08AE590E00E9423
:10317000730B34CC80915C0190915D0180179107B5
:103180000CF0B8CF8091580190915901A816B9065A
:103190000CF0B0CF80915801909159018E159F0588
:1031A0000CF0A8CF68E070E080E090E00E94F508A5
:1031B000F1E08F1A910809F093CF60E070E080E0B1
:1031C00090E00E94730B8AE50E94120184E60E943F
:1031D0001A010E94760288EB9BE00E94220162E3C2
:1031E00070E080E090E00E94F50840E050E060E090
:1031F00070E080E090E00E947E0A0E94E40344E1D7
:1032000060E0A4CF8091790390917A03009711F048
:103210000E94481B60E0809177030C94350810925F
:10322000CD021092CC0288EE93E0A0E0B0E0809353
:10323000CE029093CF02A093D002B093D10229E1A5
:1032400031E03093CB022093CA0225EC30E030937A
:10325000D7022093D60224EC30E03093D902209399
:10326000D80220EC30E03093DB022093DA0221EC2C
:1032700030E03093DD022093DC0222EC30E030932A
:10328000DF022093DE0226EC30E03093E10220934F
:10329000E0021092E3021092E4021092E502109212
:1032A000E60210926A031092690380936B03909375
:1032B0006C03A0936D03B0936E0389E291E0909349
:1032C0006803809367038BE190E09093740380938D
:1032D000730381E590E0909376038093750387E014
:1032E000809377031092780383E080937E0310929B
:1032F0007F03109280031092810310928203EBEC03
:10330000F0E0E491F0E0EE0FFF1FE654FF4F8591EF
:1033100094919093840380938303EDEAF0E0E49129
:10332000E093850381E590E00E94B31A90937A03BD
:1033300080937903009729F021E5FC0111922A95E9
:10334000E9F781E080937B0310927C0382E0809315
:103350007D0308958F929F92AF92BF92CF92DF929A
:10336000EF92FF92CF93DF93EC01688179818A819C
:103370009B81611571058105910521F464E279ED68
:103380008BE597E02DE133EF41E050E00E94451AD4
:1033900049015A019B01AC01A7EAB1E40E94641AF9
:1033A0006B017C01ACEEB4EFA50194010E94721A8E
:1033B000DC01CB018C0D9D1DAE1DBF1DB7FF03C0F1
:1033C0000197A109B04888839983AA83BB83BC0174
:1033D000CD019F77DF91CF91FF90EF90DF90CF905D
:1033E000BF90AF909F908F9008950E94AA19089562
:1033F0008BE091E00E94AA19089560930B017093ED
:103400000C0180930D0190930E0108950E940B1AF8
:1034100008F481E00895990F0008550FAA0BE0E821
:10342000FEEF16161706E807F907C0F01216130686
:10343000E407F50798F0621B730B840B950B39F4C6
:103440000A2661F0232B242B252B21F408950A262C
:1034500009F4A140A6958FEF811D811D0895F9996A
:10346000FECF92BD81BDF89A992780B50895262F89
:10347000F999FECF1FBA92BD81BD20BD0FB6F89459
:10348000FA9AF99A0FBE01960895052E97FB1EF43D
:1034900000940E945C1A57FD07D00E94771A07FC1F
:1034A00003D04EF40C945C1A5095409530952195BC
:1034B0003F4F4F4F5F4F0895909580957095619560
:1034C0007F4F8F4F9F4F08950E94991AA59F900D8F
:1034D000B49F900DA49F800D911D11240895B7FFF6
:1034E0000C94641A0E94641A821B930B0895A1E243
:1034F0001A2EAA1BBB1BFD010DC0AA1FBB1FEE1F6E
:10350000FF1FA217B307E407F50720F0A21BB30BB8
:10351000E40BF50B661F771F881F991F1A9469F734
:1035200060957095809590959B01AC01BD01CF0190
:103530000895A29FB001B39FC001A39F700D811D8C
:103540001124911DB29F700D811D1124911D0895AC
:103550000E940B1A08F48FEF0895EE0FFF1F0590DD
:10356000F491E02D0994CF93DF938230910510F40C
:1035700082E090E0E0918903F0918A0320E030E05E
:10358000C0E0D0E0309711F14081518148175907D0
:10359000C0F04817590761F482819381209719F090
:1035A0009B838A832BC090938A038093890326C0D0
:1035B0002115310519F04217530718F49A01BE017D
:1035C000DF01EF010280F381E02DDCCF2115310511
:1035D00009F1281B390B2430310590F412968D9196
:1035E0009C9113976115710521F0FB0193838283F0
:1035F00004C090938A0380938903FD01329644C0EE
:10360000FD01E20FF31F81939193225031092D9315
:103610003C933AC02091870330918803232B41F4D7
:103620002091110130911201309388032093870378
:1036300020910F01309110012115310541F42DB772
:103640003EB74091130150911401241B350BE091BA
:103650008703F0918803E217F307A0F42E1B3F0BBA
:103660002817390778F0AC014E5F5F4F24173507F4
:1036700048F04E0F5F1F5093880340938703819358
:10368000919302C0E0E0F0E0CF01DF91CF91089587
:103690000F931F93CF93DF93009709F48CC0FC0125
:1036A0003297138212820091890310918A030115C7
:1036B000110581F420813181820F931F20918703AE
:1036C000309188032817390779F5F0938803E09340
:1036D000870371C0D80140E050E0AE17BF0750F437
:1036E00012962D913C911397AD012115310509F1E9
:1036F000D901F3CF9D01DA01338322836081718187
:10370000860F971F8217930769F4EC01288139818E
:10371000260F371F2E5F3F4F318320838A819B8185
:1037200093838283452B29F4F0938A03E0938903E2
:1037300042C01396FC93EE931297ED014991599173
:103740009E01240F351FE217F30771F480819181E8
:10375000840F951F029611969C938E93828193817C
:1037600013969C938E931297E0E0F0E0D8011296A6
:103770008D919C911397009719F0F8018C01F6CF69
:103780008D919C9198012E5F3F4F820F931F209146
:103790008703309188032817390769F4309729F493
:1037A00010928A031092890302C01382128210932E
:1037B000880300938703DF91CF911F910F910895A4
:1037C00081E090E0F8940C94E51B10E0CDE6D0E0A9
:1037D00004C0FE010E94AD1A2196CE36D107C9F76A
:0437E000F894FFCF8B
:1037E400FF190000803F01E506E506010000000026
:1037F400008B038000000000004906610F1206F0F0
:1038040005040690060000000059071C0714070071
:1038140007F106F006626173656C696E653A200013
:0638240009000D0A00007E
:00000001FF
