:100000000C946E000C94AF0A0C94880A0C94960021
:100010000C9496000C9496000C9496000C94960008
:100020000C9496000C9496000C9496000C949600F8
:100030000C9496000C9496000C9496000C949600E8
:100040000C943E0A0C945F010C94AD080C94870844
:100050000C9496000C9496000C9496000C949600C8
:100060000C9496000C9496008314E514E8142D1556
:10007000AB15D01502163114311431147A16000064
:100080000000240027002A000000000023002600B2
:10009000290000000008000201000003040700001E
:1000A000000000000000010204081020408001024E
:1000B00004081020010204081020000000002500A0
:1000C00028002B00040404040404040402020202B5
:1000D0000202030303030303F31AE61A11241FBEEB
:1000E000CFEFD8E0DEBFCDBF11E0A0E0B1E0ECEE95
:1000F000FBE302C005900D92A836B107D9F723E0C3
:10010000A8E6B1E001C01D92AD3FB207E1F710E0F3
:10011000CDE6D0E004C02197FE010E94B11CCC3690
:10012000D107C9F70E94CD0F0C94E91D0C94000073
:10013000CF92DF92EF92FF92CF93DF93C42ED12C18
:10014000E12CF12CD62AE82AC0E0D0E08091E5032A
:100150009091E603C817D90728F4B701A601CE018C
:100160000E94F30D2196CB31D10581F78091EB03ED
:100170009091EC03892B41F0DF91CF91FF90EF90AC
:10018000DF90CF900C94BB0CDF91CF91FF90EF905C
:10019000DF90CF900895362FE42F8C3191052CF409
:1001A00097FF05C080E090E002C08BE190E0609195
:1001B000E5037091E6038617970740F4422F50E05D
:1001C00060E070E05E2B632B0E94F30D8091EB03E7
:1001D0009091EC03892B11F00C94BB0C08950F93B4
:1001E0001F93CF93DF938C01EB018F3F910509F0B3
:1001F0003CF401308FEF18072CF401E01FEF02C030
:100200000FEF10E0CF3FD10509F03CF4C1308FEF84
:10021000D8072CF4C1E0DFEF02C0CFEFD0E010939D
:10022000470200934602D0934502C093440217FF51
:1002300002C060E001C061E08EE00E940809D7FFC3
:1002400002C061E001C060E08FE00E940809B801CF
:1002500017FF03C071956195710986E00E947409CA
:10026000BE01D7FF03C071956195710985E0DF91EB
:10027000CF911F910F910C947409CF9380914302F9
:10028000811113C08EE68093680110929402C1E040
:10029000C093950262E00E94560EC093430265E04F
:1002A00070E080E090E00E94F80988E00E94DF089A
:1002B00021E0892B09F020E0822FCF9108951F9231
:1002C0000F920FB60F9211248F93EF93FF93E0914B
:1002D0007501F0E08EB5E85CFD4F8083E09175011B
:1002E000F0E0E659FE4F80818EBD81E0809374017D
:1002F000809175018F5F80937501809175018B30BE
:1003000020F01CBC8CB58F778CBDFF91EF918F9145
:100310000F900FBE0F901F90189580917401882345
:1003200009F453C08AE00E94DF08019709F04DC02C
:100330001CBC8CB58F778CBD80913802F09139024E
:1003400070913A0260913B0250913C0240913D0213
:1003500030913E0220913F0290914002E091410293
:100360008F27872786278527842783278227892722
:100370008E1731F18FEF80933802809138028238E6
:1003800091F41092060160913A028091390270E076
:1003900060587109660F771F90E080589109880FA7
:1003A000991F0E94EF0085E68EBD10927501109294
:1003B00074018CB580648CBD8CB580688CBD08954B
:1003C000809141028111D9CFD5CF089583E48093E4
:1003D000680163E00E94AA0EE4E9F2E0818190E006
:1003E000982F88272281338130933702822B0895FA
:1003F0008A3020F0843718F083E701C08AE08093C8
:1004000036028093940261E086E30C94560E80934A
:1004100035028093940261E085E30C94560E80933C
:1004200034028093940261E084E30C94560E23E33B
:1004300020936801E4E9F2E09083818362E083E342
:100440000C94560E29E220936801E4E9F2E09083CF
:10045000818362E089E20C94560E80E090E00C9477
:10046000220281E2809368016DE00E94AA0EE4E915
:10047000F2E0818190E0982F88272281822B90934F
:10048000330280933202838190E0982F8827248161
:10049000822B9093310280933002858190E0982FD7
:1004A00088272681822B90937F0180937E0187810C
:1004B00090E0982F88272085822B90938B01809342
:1004C0008A01818590E0982F88272285822B90933E
:1004D000870180938601838590E0982F8827248563
:1004E000822B90937B0180937A01089580E2809320
:1004F000680167E00E94AA0EE4E9F2E0818190E0E1
:10050000982F88272281822B9093830180938201E8
:10051000838190E0982F88272481822B90938101FA
:1005200080938001858190E0982F88272681822BF7
:10053000909377018093760108950F931F93CF9343
:10054000DF938FE68093680185E08093940261E0F9
:100550008FE60E94560EC4E0D0E013E102E080ED89
:1005600097E00E94220244E150E064E170E084E1FF
:1005700090E00E949800109368010093940261E05B
:1005800083E10E94560E64EF71E080E090E00E94EB
:10059000F8090E942D0240E050E060E070E080E049
:1005A00090E00E949800109368011092940261E01C
:1005B00083E10E94560E64EF71E080E090E00E94BB
:1005C000F809219761F688EB9BE00E9417026AE028
:1005D00070E080E090E00E94F80940E050E060E0C8
:1005E00070E084E190E00E94980068EE73E080E0A3
:1005F00090E00E94F809C4E0D0E080E50E94F80194
:1006000060E971E080E090E00E94F8098EE60E94C7
:10061000F80160E971E080E090E00E94F80921971C
:1006200061F768EE73E080E090E00E94F80940E036
:1006300050E064E170E080E090E00E949800C4E047
:10064000D0E082E30E94070260E971E080E090E080
:100650000E94F8098AE50E94070260E971E080E0E3
:1006600090E00E94F809219761F768EE73E080E05E
:1006700090E00E94F80944E150E060E070E080E022
:1006800090E00E949800C4E0D0E088E20E940F024F
:1006900060E971E080E090E00E94F80984E60E9441
:1006A0000F0260E971E080E090E00E94F809219774
:1006B00061F768EE73E080E090E00E94F80947E09F
:1006C00050E067E070E087E090E0DF91CF911F910C
:1006D0000F910C9498001F93CF93DF93C8ECD0E058
:1006E00012E362E370E080E090E00E94F80910936A
:1006F000680162E082E30E94AA0E809195028093D5
:100700002F02982F917090932E0281FB992790F9D8
:1007100090932D0282FB882780F980932C02809190
:100720002F02882311F02197E1F6DF91CF911F91DD
:1007300008958F929F92AF92BF92CF92DF92EF92E5
:10074000FF920F931F93CF93DF9388EE93E00E9465
:1007500017028EE10E9407020E946B0388EB9BE068
:100760000E94170268E270E080E090E00E94F809C1
:100770000E94E601EC010E94940E88E20E940702AA
:1007800065E570E080E090E00E94F8090E94E601D3
:10079000AE01DD0F660B770B4C01092E000CAA0889
:1007A000BB08840E951EA61EB71E0E94940E82E3FF
:1007B0000E94070265E570E080E090E00E94F80981
:1007C0000E94E6018C01092E000C220B330B800ED7
:1007D000911EA21EB31E0E94940E8CE30E9407027B
:1007E00065E570E080E090E00E94F8090E94E60173
:1007F0008C01092E000C220B330B800E911EA21EC1
:10080000B31E0E94940E86E40E94070265E570E024
:1008100080E090E00E94F8090E94E6018C01092E18
:10082000000C220B330B800E911EA21EB31E0E94E1
:10083000940E80E50E94070265E570E080E090E09C
:100840000E94F8090E94E601AC01092E000C660B1B
:10085000770B840E951EA61EB71E0E94940E8AE585
:100860000E94070265E570E080E090E00E94F809D0
:100870000E94E6010E94940E84E60E94070265E54C
:1008800070E080E090E00E94F8090E94E601EC012F
:100890000E94940E8EE60E94070265E570E080E0FB
:1008A00090E00E94F8090E94E601AE01DD0F660BA0
:1008B000770B6C01092E000CEE08FF08C40ED51E44
:1008C000E61EF71E0E94940E88E70E94070265E567
:1008D00070E080E090E00E94F8090E94E6018C013F
:1008E000092E000C220B330BC00ED11EE21EF31E8C
:1008F0000E94940E82E80E94070265E570E080E0A5
:1009000090E00E94F8090E94E6018C01092E000C7B
:10091000220B330BC00ED11EE21EF31E0E94940E5A
:100920008CE80E94070265E570E080E090E00E949C
:10093000F8090E94E6018C01092E000C220B330BF2
:10094000C00ED11EE21EF31E0E94940E86E90E9484
:10095000070265E570E080E090E00E94F8090E94DF
:10096000E6018C01092E000C220B330BC00ED11EA8
:10097000E21EF31E0E94940E88EE93E00E9417027E
:100980008AE50E9407020E946B0381E08C149D049B
:10099000AE04BF040CF480E0DF91CF911F910F9162
:1009A000FF90EF90DF90CF90BF90AF909F908F908F
:1009B00008956EE170E080E090E00E94F8098FE118
:1009C000809368016DE00E94AA0E8091950290E0EC
:1009D000982F882720919602822B90933302809340
:1009E00032028091970290E0982F882720919802F8
:1009F000822B90933102809330028091990290E093
:100A0000982F882720919A02822B90937F018093C0
:100A10007E0180919B0290E0982F882720919C0274
:100A2000822B90938B0180938A0180919D0290E0AC
:100A3000982F882720919E02822B90938701809384
:100A4000860180919F0290E0982F88272091A00234
:100A5000822B90937B0180937A0180918A019091FF
:100A60008B019093890180938801809186019091F8
:100A70008701909385018093840180917E019091FC
:100A80007F0190937D0180937C0180917A01909108
:100A90007B0190937901809378016BE571E084EF9D
:100AA00092E00E94CB0F40918A0150918B01052E5C
:100AB000000C660B770B77FF05C0CB01BA010E94D3
:100AC000A20F05C02AE084EF92E00E94590F66E66B
:100AD00071E084EF92E00E94CB0F4091860150912B
:100AE0008701052E000C660B770B77FF05C0CB0145
:100AF000BA010E94A20F05C02AE084EF92E00E9492
:100B0000590F64E471E084EF92E00E94440F64E6C0
:100B100070E080E090E00C94F8090F931F93CF935E
:100B2000DF9362E070E080E090E00E94200F162FDB
:100B300088EB9BE00E941702D2E068EB7BE080E04C
:100B400090E00E94200FDC01CB0188519C4FAF4FF9
:100B5000BF4F0E94220260E570E080E090E00E94BA
:100B6000200F062F60E570E080E090E00E94200FEB
:100B7000C62F60E570E080E090E00E94200F462FD5
:100B800050E06C2F70E0802F90E00E94980064E6A7
:100B900070E080E090E00E94200FC62F64E670E0D5
:100BA00080E090E00E94200F062F64E670E080E075
:100BB00090E00E94200F462F602F8C2F0E94950BF3
:100BC00086E90E940F02112341F086E90E94070284
:100BD00066E07FEF8AEF90E007C08EE10E94070297
:100BE0006AEF70E086E09FEF0E94EF0060E570E042
:100BF00080E090E00E94F8090E942D0260E070E021
:100C000080E090E00E94EF0066E970E080E090E014
:100C10000E94F80940E050E060E070E080E090E081
:100C20000E9498008AE50E94070284E60E940F0253
:100C30006AEF70E080E090E00E94F809D13011F096
:100C4000D1E07BCF40E050E060E070E080E090E0F9
:100C50000E9498004FE060E080E0DF91CF911F910B
:100C60000F910C94950B0F931F93CF93DF93C6E0D6
:100C7000D0E068EB7BE080E090E00E94200FDC0198
:100C8000CB0188519C4FAF4FBF4F0E94220260E5BD
:100C900070E080E090E00E94200F062F60E570E099
:100CA00080E090E00E94200F162F60E570E080E069
:100CB00090E00E94200F462F50E0612F70E0802FBF
:100CC00090E00E94980064E670E080E090E00E946E
:100CD000200F162F64E670E080E090E00E94200F65
:100CE000062F64E670E080E090E00E94200F462F1F
:100CF000602F812F0E94950B6AEF70E086E09FEFD6
:100D00000E94EF006CE370E080E090E00E94F80940
:100D100068EB7BE080E090E00E94200FDC01CB01DB
:100D200088519C4FAF4FBF4F0E94220260E570E098
:100D300080E090E00E94200F062F60E570E080E0E8
:100D400090E00E94200F162F60E570E080E090E0B8
:100D50000E94200F462F50E0612F70E0802F90E01E
:100D60000E94980064E670E080E090E00E94200F0E
:100D7000162F64E670E080E090E00E94200F062FBE
:100D800064E670E080E090E00E94200F462F602F24
:100D9000812F0E94950B66E07FEF8AEF90E00E9422
:100DA000EF006CE370E080E090E00E94F80921978A
:100DB00009F05FCF60E070E080E090E00E94EF001B
:100DC0000E942D0240E050E060E070E080E090E0A2
:100DD0000E9498004FE060E080E0DF91CF911F918A
:100DE0000F910C94950BFC01918D828D981761F0F9
:100DF000828DDF01A80FB11D5D968C91928D9F5F52
:100E00009F73928F90E008958FEF9FEF0895FC01FC
:100E1000918D828D981731F0828DE80FF11D858DAF
:100E200090E008958FEF9FEF0895FC01918D228D42
:100E3000892F90E0805C9F4F821B91098F739927C7
:100E4000089584EF92E00E94150721E0892B09F4B0
:100E500020E0822F0895FC01848DDF01A80FB11DD1
:100E6000A35ABF4F2C91848D90E001968F739927E0
:100E7000848FA689B7892C93A089B1898C918064CD
:100E80008C93938D848D981306C00288F389E02D8E
:100E900080818F7D80830895EF92FF920F931F933F
:100EA000CF93DF93EC0181E0888F9B8D8C8D98131D
:100EB00005C0E889F989808185FD24C0F62E0B8D57
:100EC00010E00F5F1F4F0F731127E02E8C8DE8127B
:100ED0000CC00FB607FCFACFE889F989808185FF3D
:100EE000F5CFCE010E942B07F1CF8B8DFE01E80FCD
:100EF000F11DE35AFF4FF0820B8FEA89FB89808155
:100F0000806207C0EE89FF896083E889F989808162
:100F10008064808381E090E0DF91CF911F910F91F9
:100F2000FF90EF900895CF93DF93EC01888D882395
:100F3000C9F0EA89FB89808185FD05C0A889B98946
:100F40008C9186FD0FC00FB607FCF5CF808185FF21
:100F5000F2CFA889B9898C9185FFEDCFCE010E948F
:100F60002B07E7CFDF91CF91089580E090E0892BA8
:100F700029F00E94210781110C940000089583300C
:100F800081F028F4813099F08230A1F00895873003
:100F9000A9F08830B9F08430D1F4809180008F7D41
:100FA00003C0809180008F7780938000089584B57E
:100FB0008F7702C084B58F7D84BD08958091B00085
:100FC0008F7703C08091B0008F7D8093B00008952B
:100FD000089584ED8093BC008091BC0084FDFCCF1B
:100FE0001092D00208950895E091930280919202A8
:100FF000E81730F4F0E0EE58FD4F808190E008955E
:101000008FEF9FEF0895909193028091920298172D
:1010100050F4E92FF0E0EE58FD4F208130E09F5F63
:101020009093930202C02FEF3FEFC9010895809182
:10103000920290E020919302821B91090895CF9231
:10104000DF92EF92FF920F931F93CF93DF937C0178
:101050008A018091D102882389F0EB016B01C40ED3
:10106000D51ECC15DD05F1F06991D701ED91FC910C
:101070000190F081E02DC7010995F3CF842F413213
:1010800088F49091D002943069F440936802FB0197
:1010900028E432E0D9019A2F921B981718F4919105
:1010A0009D93F9CFC801DF91CF911F910F91FF90D0
:1010B000EF90DF90CF9008952091D1022223C9F0C4
:1010C0002091F302203240F021E030E0FC01338334
:1010D000228380E090E008958091D202E82FF0E032
:1010E000ED52FD4F60838F5F8093D2028093F302B5
:1010F00009C08091D002843029F481E08093680295
:101100006093480281E090E008950E94E41D1F92E0
:101110000F920FB60F9211242F933F934F935F932B
:101120006F937F938F939F93AF93BF93EF93FF93AF
:1011300084EF92E00E942B07FF91EF91BF91AF9156
:101140009F918F917F916F915F914F913F912F91DF
:101150000F900FBE0F901F9018951F920F920FB611
:101160000F9211242F938F939F93EF93FF93E0910E
:101170000403F09105038081E0910A03F0910B03D1
:1011800082FD12C0908180910D038F5F8F7320913B
:101190000E03821751F0E0910D03F0E0EC50FD4F8B
:1011A000958F80930D0301C08081FF91EF919F91F6
:1011B0008F912F910F900FBE0F901F901895CF9386
:1011C000DF93282F30E0F901EE56FF4F8491F901AB
:1011D000EA55FF4FD491F901EC53FF4FC491CC2352
:1011E00091F081110E94BF07EC2FF0E0EE0FFF1F7E
:1011F000E857FF4FA591B491EC91ED2381E090E089
:1012000021F480E002C080E090E0DF91CF9108956A
:101210001F93CF93DF93282F30E0F901EE56FF4F55
:101220008491F901EA55FF4FD491F901EC53FF4F36
:10123000C491CC23C9F0162F81110E94BF07EC2F57
:10124000F0E0EE0FFF1FE654FF4FA591B4918FB76A
:10125000F894111105C09C91ED2FE095E92302C08F
:10126000EC91ED2BEC938FBFDF91CF911F910895FF
:10127000CF93DF9390E0FC01EA55FF4F2491FC01EE
:10128000EC53FF4F8491882361F190E0880F991F00
:10129000FC01E258FF4FC591D491FC01E654FF4F89
:1012A000A591B491611109C09FB7F89488812095E8
:1012B00082238883EC912E230BC0623061F49FB7A8
:1012C000F8943881822F809583238883EC912E2B8C
:1012D0002C939FBF06C08FB7F894E8812E2B2883EC
:1012E0008FBFDF91CF9108951F93CF93DF93182F76
:1012F000EB0161E00E943809209711F460E004C01E
:10130000CF3FD10539F461E0812FDF91CF911F915B
:101310000C940809E12FF0E0EE56FF4FE491E33022
:10132000F9F048F4E130B9F0E230A1F584B580621B
:1013300084BDC8BD34C0E730E9F0E83019F1E430CD
:1013400049F580918000806280938000D0938B006B
:10135000C0938A0024C084B5806884BDC7BD1FC007
:1013600080918000806880938000D0938900C09332
:10137000880015C08091B00080688093B000C09351
:10138000B3000DC08091B00080628093B000C09324
:10139000B40005C0C038D1050CF0B5CFAFCFDF9198
:1013A000CF911F9108953FB7F89480916E0290916C
:1013B0006F02A0917002B091710226B5A89B05C082
:1013C0002F3F19F00196A11DB11D3FBFBA2FA92FC4
:1013D000982F8827820F911DA11DB11DBC01CD0141
:1013E00043E0660F771F881F991F4A95D1F708952C
:1013F0008F929F92AF92BF92CF92DF92EF92FF9225
:101400006B017C010E94D3094B015C01C114D10422
:10141000E104F104F1F00E94D309DC01CB01881949
:101420009909AA09BB09883E9340A105B10570F34B
:1014300021E0C21AD108E108F10888EE880E83E0A5
:10144000981EA11CB11CC114D104E104F10419F7C8
:10145000DDCFFF90EF90DF90CF90BF90AF909F9047
:101460008F9008952FB7F89460916A0270916B0283
:1014700080916C0290916D022FBF08951F920F9280
:101480000FB60F9211242F933F938F939F93AF9397
:10149000BF9380916A0290916B02A0916C02B0910F
:1014A0006D023091690226E0230F2D3720F4029659
:1014B000A11DB11D05C029E8230F0396A11DB11D73
:1014C0002093690280936A0290936B02A0936C024E
:1014D000B0936D0280916E0290916F02A0917002A4
:1014E000B09171020196A11DB11D80936E0290937F
:1014F0006F02A0937002B0937102BF91AF919F9160
:101500008F913F912F910F900FBE0F901F901895C4
:101510001F920F920FB60F9211242F933F934F9368
:101520005F936F937F938F939F93AF93BF93EF934B
:10153000FF93E0910901F0910A010995FF91EF9164
:10154000BF91AF919F918F917F916F915F914F91DB
:101550003F912F910F900FBE0F901F9018951F92E3
:101560000F920FB60F9211242F933F934F935F93D7
:101570006F937F938F939F93AF93BF93EF93FF935B
:10158000E0910701F09108010995FF91EF91BF915A
:10159000AF919F918F917F916F915F914F913F910B
:1015A0002F910F900FBE0F901F9018958091BC0047
:1015B00087FF76C08091B900887F883211F170F47E
:1015C0008031E1F030F4882309F466C08830B1F04E
:1015D00008958831B1F0803239F108958034B9F13D
:1015E00028F4803309F1883311F10895803519F119
:1015F0008835C9F1883409F053C050C08091AB02DE
:1016000010C09091CD028091CC029817C0F5E09166
:10161000CD0281E08E0F8093CD02F0E0E455FD4FC6
:1016200080818093BB0019C08093CE0237C0809325
:10163000CE0284EC2CC0E091CD0281E08E0F80932D
:10164000CD028091BB00F0E0E455FD4F8083909186
:10165000CD028091CC02981710F484EC01C084E88C
:101660008093BC000895E091CD0281E08E0F8093BD
:10167000CD028091BB00F0E0E455FD4F8083809166
:10168000CF0281110BC081E08093AA0284EA80938B
:10169000BC001092D00208951092CE020C94E9077B
:1016A00008951092D00281E08093CF021092AA0296
:1016B00061E082E10E94080961E083E10E9408097B
:1016C000E9EBF0E080818E7F808380818D7F808355
:1016D00082E08093B80084E48093BC000895FB010D
:1016E00060810E943B1C81E090E00895CF93DF93DE
:1016F000EB010E94331C888381E090E0DF91CF9161
:10170000089520E030E040E050E060E070E082E0EA
:1017100090E00E94CB0020E030E040E050E060E04C
:1017200070E081E090E00C94CB00EF92FF920F9379
:101730001F93CF93DF93E42EF12C062F10E0C82FD8
:10174000D0E09701A801BE0182E090E00E94CB00AA
:101750009701A801BE0181E090E0DF91CF911F9138
:101760000F91FF90EF900C94CB00EF92FF920F93AC
:101770001F93CF93DF938C010D5F1F4FEC012F96CA
:10178000CB31D10514F0CAE1D0E00F30110514F0CF
:101790000EE010E02FE0E22EF12C20E030E040E0FF
:1017A00050E060E070E0C7010E94CB008FEFE81AC4
:1017B000F80A8BE1E816F10481F793E0E92EF12CA9
:1017C00020E030E040E050E060E070E0C7010E94BF
:1017D000CB008FEFE81AF80A8FE0E816F10481F7E2
:1017E0008FE0E82EF12CEC16FD066CF420E030E0E2
:1017F0004DEC50E062E370E0C7010E94CB008FEF38
:10180000E81AF80AF0CFC3E0D0E0C017D1075CF4C3
:1018100020E030E04DEC50E062E370E0CE010E9449
:10182000CB002196F2CF68EB7BE080E090E0DF9187
:10183000CF911F910F91FF90EF900C94F809CF92E8
:10184000DF92EF92FF920F931F93CF93DF936C0180
:101850007A018B01C0E0D0E0CE15DF0589F0D80118
:101860006D918D01D601ED91FC910190F081E02DFB
:10187000C6010995892B11F47E0102C02196ECCF97
:10188000C701DF91CF911F910F91FF90EF90DF90F3
:10189000CF9008950F931F93CF93DF931F92CDB7EF
:1018A000DEB71091F3020091F803113208F052C034
:1018B0008091D002882319F00E94D60AF9CF92E0D5
:1018C0009093D00291E09093CF029FEF9093CE023D
:1018D0001092CD021093CC02A3EDB2E02CEA32E0DC
:1018E000F9019E2F921B911718F49D919193F9CFB6
:1018F0001092AB022091AB02902F990F922B9093F4
:10190000AB029091AA02913059F41092AA029091E0
:10191000AB029093BB0095EC9093BC0094EC01C09B
:1019200094EE9093BC009091D002923029F4898378
:101930000E94D60A8981F7CF9091CE029F3F79F01D
:101940008091CE02803241F08091CE02803331F01E
:1019500084E005C081E003C082E001C083E0109212
:10196000D2021092F3021092D1020F90DF91CF9128
:101970001F910F9108950F931F93CF93DF93CDB7CE
:10198000DEB729970FB6F894DEBF0FBECDBF0E9419
:10199000D3090091F1031091F2032091F3033091E8
:1019A000F403DC01CB01801B910BA20BB30BC2979C
:1019B000A105B10560F3F8948091E7039091E803E5
:1019C0009A838983E091EB03F091EC03DF01119698
:1019D000808189878091F003E091F503F091F6030F
:1019E00081FFBBC01B82EB32F10509F058C09BB1EF
:1019F0008091F703982B98879BB1809589238F83DB
:101A00008F818C83898587FF02C088858C83588568
:101A10006F8149853C812B8189819A815BB9262F11
:101A20003BB900C046FD252F6BB900C05BB9362F0E
:101A30002BB900C045FD352F6BB900C05BB9262F0F
:101A40003BB900C044FD252F6BB900C05BB9362FF0
:101A50002BB900C043FD352F6BB900C05BB9262FF1
:101A60003BB900C042FD252F6BB900C05BB9362FD2
:101A70002BB900C041FD352F6BB900C05BB9262FD3
:101A80003BB900C040FD252F6BB901975BB9362FDC
:101A90002BB94D9147FD352F6BB901F65AC0B5975B
:101AA00009F08BC095B18091F703982B988795B179
:101AB000809589238F838F818C83898587FF02C0DE
:101AC00088858C8358856F8149853C812B818981EC
:101AD0009A8155B9262F35B900C046FD252F65B925
:101AE00000C055B9362F25B900C045FD352F65B961
:101AF00000C055B9262F35B900C044FD252F65B962
:101B000000C055B9362F25B900C043FD352F65B942
:101B100000C055B9262F35B900C042FD252F65B943
:101B200000C055B9362F25B900C041FD352F65B924
:101B300000C055B9262F35B900C040FD252F65B925
:101B4000019755B9362F25B94D9147FD352F65B908
:101B500001F649873C832B832EC090818091F70347
:101B6000982B98879081809589238F838F818E838E
:101B700088E08D8358856F8149853D812E818981DB
:101B80009A81508347FD252F2083262F3A9531F0E7
:101B9000441F608300C000C000C0F3CF608300001A
:101BA00038E04D91019769F7F093F603E093F50360
:101BB00049873D832E839A83898378940E94D30931
:101BC0006093F1037093F2038093F3039093F40313
:101BD00029960FB6F894DEBF0FBECDBFDF91CF912F
:101BE0001F910F9108958F929F92AF92BF92CF92C3
:101BF000DF92EF92FF924B01AA24BB24F82DC52E51
:101C0000D62EE72EFF24EC2D342F2091EA03222339
:101C100061F0829E40011124F92DC29E60011124C1
:101C2000ED2D429FA0011124352FAC01440F551F0B
:101C3000840F951F4091EB035091EC03840F951F87
:101C40002091ED03DC01A20FB11DFC932091EE0366
:101C5000DC01A20FB11DEC932091EF03FC01E20F18
:101C6000F11D3083FF90EF90DF90CF90BF90AF9049
:101C70009F908F900895CF93DF93EB0191E0909325
:101C8000D1029BE69093F8031092D2021092F302D5
:101C9000682F81E993E00E945C08688181E993E004
:101CA0000E945C08DF91CF910C944A0CEF92FF9256
:101CB0000F931F93CF93DF931F92CDB7DEB7062FFD
:101CC00010929302109292021092D2021092F3029A
:101CD00089830E94510B91E09093D10292E39093FB
:101CE000F8038981682F81E993E00E945C0810E085
:101CF000E02EF12C812F012E000C990B8E159F05E3
:101D000054F4FC01EC56FD4F608181E993E00E94A0
:101D10005C081F5FEFCF0F90DF91CF911F910F9164
:101D2000FF90EF900C944A0C8C3D95404CF480ED64
:101D300097E00E94220240E060E584E60E94950B55
:101D400069E170E080E090E00E94F8090E942D02B5
:101D50000C94810BCF93DF93C62F91E09093D10227
:101D600092E39093F8031092D2021092F302682F3C
:101D700081E993E00E945C080E944A0C80E690E0B2
:101D80000197F1F78091D002882319F00E94D60ABA
:101D9000F9CFC13208F0C0E281E08093D002809395
:101DA000CF029FEF9093CE021092CD029C0F9093A2
:101DB000CC028093AB028091AB0284668093AB022D
:101DC0008091AA02813041F41092AA028091AB0264
:101DD0008093BB0084EC01C084EE8093BC008091B2
:101DE000D002813019F40E94D60AF9CF8091CD0239
:101DF0008C1710F4C091CD02ACEAB2E022E732E0D9
:101E0000F9018E2F821B8C1718F48D918193F9CFD5
:101E100010929302C0939202D0E080919302C8176F
:101E200059F081E993E00E940308ED2FF0E0EC56B1
:101E3000FD4F8083DF5FF1CF8D2FDF91CF9108952C
:101E4000CF93DF9300D000D0CDB7DEB76115710519
:101E50008105910579F09B01AC0169833A834B833D
:101E60005C830E94FC1B29813A814B815C810E942A
:101E70006B1C03C060E070E0CB010F900F900F90DF
:101E80000F90DF91CF9108956115710579F0FB01F5
:101E900001900020E9F73197AF01461B570BDC0199
:101EA000ED91FC910280F381E02D099480E090E0B7
:101EB00008954F925F926F927F92EF92FF920F93ED
:101EC0001F93CF93DF93CDB7DEB7A1970FB6F894EA
:101ED000DEBF0FBECDBF7C01FA01CB0119A22230BB
:101EE00008F42AE08E010F5D1F4F422E512C612C09
:101EF000712CBF01A30192010E94491CF901CA0182
:101F0000015011096A3014F4605D01C0695CD801A8
:101F10006C93232B242B252B61F7B801C7010E945A
:101F2000440FA1960FB6F894DEBF0FBECDBFDF9170
:101F3000CF911F910F91FF90EF907F906F905F90E6
:101F40004F900895CF92DF92EF92FF92CF93DF935D
:101F50006B017C01E091F402F091F5020190F081B7
:101F6000E02D6DE284EF92E00995EC0144275527BE
:101F7000BA014C195D096E097F092AE084EF92E0ED
:101F80000E94590F8C0F9D1FDF91CF91FF90EF9012
:101F9000DF90CF9008950C94440FCF93DF93CDB78B
:101FA000DEB765970FB6F894DEBF0FBECDBF78944D
:101FB00084B5826084BD84B5816084BD85B582604E
:101FC00085BD85B5816085BD80916E0081608093FF
:101FD0006E00109281008091810082608093810068
:101FE0008091810081608093810080918000816078
:101FF000809380008091B10084608093B1008091D3
:10200000B00081608093B00080917A0084608093FA
:102010007A0080917A00826080937A0080917A00C1
:102020008E7F80937A0080917A00806880937A0016
:102030001092C1001092E1031092E2031092E303A8
:102040001092E40310929F031092A0031092A10338
:102050001092A2030E94320A6B017C014B015C01C9
:1020600028EB820E2BE0921EA11CB11C0E94320AAA
:102070006C157D058E059F0528F086169706A80627
:10208000B906A0F784EF92E09093E0038093DF031A
:10209000E0910403F091050382E08083E091000366
:1020A000F09101031082E0910203F091030388E0B4
:1020B000808310920C03E0910803F091090386E0FD
:1020C0008083E0910603F091070380818061808323
:1020D000E0910603F0910703808188608083E0919E
:1020E0000603F0910703808180688083E0910603F6
:1020F000F091070380818F7D80830E94320A609374
:102100009F037093A0038093A1039093A20365E3C0
:1021100071E08091DF039091E0030E94CB0F0E9459
:10212000320A6B017C014B015C018AE0880E911C34
:10213000A11CB11C0E94320A6C157D058E059F05FD
:1021400028F086169706A806B906A0F781E08093C6
:10215000B30361E087E00E94380960E087E00E94F5
:10216000080940E050E060E070E080E090E00E940C
:10217000980060E08AE00E94380960E08BE00E94ED
:10218000380960E08DE00E94380961E08CE00E942F
:10219000380960E08CE00E94080962E082E00E9459
:1021A000380960E089E00E943809E0910403F09169
:1021B000050382E08083E0910003F0910103108227
:1021C000E0910203F091030310E1108310920C03DD
:1021D000E0910803F091090386E08083E091060313
:1021E000F0910703808180618083E0910603F09184
:1021F0000703808188608083E0910603F0910703E4
:10220000808180688083E0910603F09107038081DC
:102210008F7D808360E087E00E94080961E087E0AD
:102220000E94380910929302109292021092D202E8
:102230001092F3020E94510B1D83BE016B5F7F4F12
:1022400082E20E943B0E8FE08C83BE016C5F7F4F69
:1022500080E20E943B0EBE016D5F7F4F89EF93E0ED
:102260000E94760BBE016E5F7F4F8AEF93E00E9463
:10227000760BBE016F5F7F4F8BEF93E00E94760B72
:10228000909101018B81911103C0809301010AC0DB
:1022900090910101891731F061E071E089EF93E0DD
:1022A0000E946F0B90918C018A81911103C08093E1
:1022B0008C010AC090918C01891731F06CE871E0B3
:1022C0008AEF93E00E946F0B909100018981911138
:1022D00003C0809300010AC090910001891731F07A
:1022E00060E071E08BEF93E00E946F0B8091010141
:1022F00081588093940261E087E30E94560E80919A
:102300008C0181588093940261E088E30E94560E0C
:102310008091000181588093940261E089E30E94DA
:10232000560E7DE8E72E71E0F72E0CEF13E0C801A2
:102330000E94331CD7018D937D010F5F1F4F011544
:10234000B4E01B07A1F7C0908D01D0908E01E09002
:102350008F01F09090012AE939E949E55FE3C7016F
:10236000B6010E94AC1C87FD12C023E333E343E9AE
:102370005FE3C701B6010E940A1C181644F0C09220
:102380000201D0920301E0920401F09205010E9443
:102390002D0285E18093680165E00E94AA0E80917C
:1023A000950290E0982F882720919602822B909397
:1023B0009401809393018091970290E0982F882751
:1023C00020919802822B90939201809391010E9418
:1023D000320A60939B0170939C0180939D019093BE
:1023E0009E010E94320A6093960170939701809338
:1023F00098019093990181E08093950185E68EBDC7
:1024000010926A0110926B0110926C0110926D0192
:1024100010926E0110926F01109270011092710172
:102420001092720180916A01E0916B0170916C01D0
:1024300060916D0150916E0140916F01309170017A
:1024400020917101909172018E2787278627852719
:10245000842783278227892780937301109275012F
:10246000109274018CB580648CBD8CB580688CBD75
:1024700040E050E060E070E080E090E00E94980072
:1024800088EE93E00E94220242E360E088E20E942C
:10249000950B62E370E080E090E00E94F80980ED27
:1024A00097E00E94220262E370E080E090E00E94E8
:1024B000F80988EB9BE00E94220262E370E080E072
:1024C00090E00E94F80980EA9FE00E94220264E600
:1024D00070E080E090E00E94F8090E942D020E94C6
:1024E000810B88EB9BE00E94170284E60E940F029A
:1024F0008AE50E9407028AE00E94F8010E947602A3
:102500006091760170917701072E000C880B990B72
:10251000611571058105910511F00E94011C0E9451
:10252000D90411E01093940261E081E40E94560EF8
:1025300045E050E060E070E080E090E00E949800AC
:102540002AE030E040E050E060E070E08EE090E0B3
:102550000E94CB002AE030E040E050E060E070E014
:102560008AE190E00E94CB008091060190E00E94F9
:10257000B50B0E943D01882339F00E949D02109303
:102580009A018FEF809306010E94320A672B682B15
:10259000692B41F40E94320A623071058105910570
:1025A00008F41BC10E94320A6093A3017093A40136
:1025B0008093A5019093A60100919F011091A00125
:1025C0002091A1013091A201601771078207930742
:1025D00040F460939F017093A0018093A1019093B8
:1025E000A20100919F011091A0012091A1013091C1
:1025F000A2016B017C01C01AD10AE20AF30A970119
:1026000086010A3F11052105310508F4E6C06093F3
:102610009F017093A0018093A1019093A20184EF88
:1026200091E0A0E0B0E08093AB039093AC03A09363
:10263000AD03B093AE031092AF031092B0031092AB
:10264000B1031092B2038091A3039091A403A091CF
:10265000A503B091A6038093A7039093A803A0932A
:10266000A903B093AA030E94320A6093A303709354
:10267000A4038093A5039093A6030E94320A60935B
:102680009F037093A0038093A1039093A2030E94E1
:10269000320A6B017C0167E471E08091DF03909165
:1026A000E0030E94CB0F2AE041E050E060E070E0E0
:1026B0008091DF039091E0030E94590F6EE471E076
:1026C0008091DF039091E0030E94CB0F2AE0B701D5
:1026D000A6018091DF039091E0030E94590F60E50D
:1026E00071E08091DF039091E0030E94CB0F809115
:1026F000A3039091A403A091A503B091A603B701F1
:10270000A601481B590B6A0B7B0B2AE08091DF0363
:102710009091E0030E94590F60E571E08091DF0322
:102720009091E0030E94CB0F4091A3035091A4032A
:102730006091A5037091A6038091A7039091A803CF
:10274000A091A903B091AA03481B590B6A0B7B0BFC
:102750002AE08091DF039091E0030E94590F62E527
:1027600071E08091DF039091E0030E94CB0F0E9403
:10277000320AAB01BC012AE08091DF039091E003B3
:102780000E94590F0091DF031091E00364E571E0AE
:10279000C8010E94440F64E471E0C8010E94440F24
:1027A0000E94320A4B015C016B017C0192E0C90E70
:1027B000D11CE11CF11C0E94320A681579058A05BA
:1027C0009B0508F0A2C60E94320A6093A30370938F
:1027D000A4038093A5039093A60380910601813002
:1027E00009F073C060E070E080E090E00E94EF00CC
:1027F0000E942D020E943D01882329F14AE050E009
:102800006AE070E080E090E00E94980060E070E094
:1028100080E090E00E94EF000E942D02809106016E
:1028200090E00E94B50B64E670E080E090E00E94CA
:10283000F8090E943D018111FCCF64E670E080E060
:1028400090E00E94F8090E948D0162E370E080E050
:1028500090E00E94F809C1CF0E94E60180329340C7
:10286000C8F10E943D01882341F14AE050E06AE04E
:1028700070E080E090E00E949800E2E0E0930601C2
:102880008091060190E00E94B50B64E670E080E064
:1028900090E00E94F80960E070E080E090E00E9423
:1028A000EF000E942D020E943D018111FCCF64E6E1
:1028B00070E080E090E00E94F8090E948D0162E3E0
:1028C00070E080E090E00E94F8098091060182307B
:1028D00019F213C26BE070E080E090E00E94200FDC
:1028E000DC01CB010196A11DB11D092E000CAA0B24
:1028F000BB0BFC013197EB30F10508F0B2CFEC5C7B
:10290000FF4F0C94B11C88EE93E00E94220248E72E
:1029100060E080E00E94950B62E370E080E090E070
:102920000E94F80980ED97E00E94220262E370E0C5
:1029300080E090E00E94F80988EB9BE00E94220270
:1029400062E370E080E090E00E94F80980EA9FE096
:102950000E94220264E670E080E090E00E94F809A4
:1029600048E768E780E00E94950B62E370E080E052
:1029700090E00E94F80980EA9FE00E94220262E350
:1029800070E080E090E00E94F80988E893E10E94FE
:10299000220262E370E080E090E00E94F80980E7A4
:1029A00097E10E94220264E670E080E090E00E94DD
:1029B000F8090E942D024AE060E080E00E94950B39
:1029C00064EF71E080E090E045C00E94330649CF9B
:1029D00086E990E00E9417024CE360E084E60E94E2
:1029E000950B80EA9FE00E9422028FE00E940F0276
:1029F0000E946B030E942D0288EB9BE00E9417024D
:102A000088E20E94F8016EEE72E080E090E00E94A1
:102A1000F80986E990E00E94170283E70E94F80116
:102A20000E946B0388E20E94F8010E946B0388EB0E
:102A30009BE00E9417028AE00E94F80184E60E944F
:102A40000F0244E160E080E00E94950B6CE271E0CF
:102A500080E090E00E94F80904CF0AE010E0212C09
:102A600064E670E080E090E00E94200F6B017C0142
:102A7000B2E3CB0ED11CE11CF11C6CEA7DE080E0DE
:102A800090E00E94200F4B015C0168E770E080E05D
:102A900090E00E94200F362E68E770E080E090E022
:102AA0000E94200F362F68E770E080E090E03D8BB9
:102AB0000E94200F262F68E770E080E090E02C8BCA
:102AC0000E94200F2B013C0168E770E080E090E05D
:102AD0000E94200F6E837F838887998768E770E064
:102AE00080E090E00E94200FAB016E817F81C201E7
:102AF0000E9498002C89422F3D89632F832D0E94CC
:102B0000950BD501C40188519C4FAF4FBF4F0E9418
:102B10002202882799278C199D09222031F0BC01B7
:102B2000C6010E94EF00212C05C0B6010E94EF00F3
:102B30002224239464E670E080E090E00E94F8098B
:102B40000150110909F08CCF60E070E080E090E066
:102B50000E94EF00BFC040E060E088EC0E94950B4F
:102B600088EE93E00E94170288EE93E00E94220212
:102B70008CE80E9407020E946B0388E20E94070211
:102B80000E946B038CE80E9407020E946B0388E29C
:102B90000E9407020E946B038AE50E94070224C07C
:102BA00040E068EC80E00E94950B88EE93E00E9484
:102BB000170288EB9BE00E94220286E90E940F0226
:102BC0000E946B0382E30E940F020E946B0386E95E
:102BD0000E940F020E946B0382E30E940F020E9478
:102BE0006B0384E60E940F020E946B0388EB9BE05C
:102BF0000E9417024FE060E080E00E94950B0E9467
:102C00002D022FCE0FE010E060EA7FE080E090E040
:102C10000E94200F6B017C0168E770E080E090E08B
:102C20000E94200F2B013C0168E770E080E090E0FB
:102C30000E94200F6E837F838887998768E770E002
:102C400080E090E00E94200F9B01AC0168E770E0FB
:102C500080E090E02C8B3D8B4A8B5B8B0E94200F99
:102C60006A877B878C879D8768E770E080E090E0CB
:102C70000E94200F6E877F87888B998B68E770E0B2
:102C800080E090E00E94200F4B015C012C893D897F
:102C90004E815F81B20181E090E00E94CB009401FF
:102CA0004E855F856A857B8582E090E00E94CB003F
:102CB000D701C60188519C4FAF4FBF4F0E942202DF
:102CC00062E370E080E090E00E94F8090150110991
:102CD00009F09ACF0E942D0240E050E060E070E0E1
:102CE00080E090E00E94980044E160E080E00E9473
:102CF000950BB7CD0E948D05B4CD43E0742E809125
:102D00000601833009F077C36AE570E08AE590E058
:102D10000E94EF000E94320A60939B0170939C0115
:102D200080939D0190939E010E94320A00919B0125
:102D300010919C0120919D0130919E010053184FEC
:102D40002F4F3F4F601771078207930708F0B8C2F3
:102D50000E94310265E070E080E090E00E94F80996
:102D600040918A0150918B01809188019091890155
:102D70009C0122533109241735074CF420918A0114
:102D800030918B01C296281739070CF408C168E806
:102D90007FEF88E89FEF0E94EF0068EC70E080E032
:102DA00090E00E94F80966EA7FEF84EC9FEF0E94B2
:102DB000EF0085E594E00E94220288E790E00E94FF
:102DC00017028DE20E9407028EE10E940F0260E569
:102DD00070E080E090E00E94200F062F60E570E038
:102DE00080E090E00E94200F162F60E570E080E008
:102DF00090E00E94200F462F50E0612F70E0802F5E
:102E000090E00E94980064E670E080E090E00E940C
:102E1000200F162F64E670E080E090E00E94200F03
:102E2000062F64E670E080E090E00E94200F462FBD
:102E3000602F812F0E94950B93E3C92ED12C0E9405
:102E4000310280917E0190917F0100917C0110916F
:102E50007D015801F2E3AF1AB108A816B9060CF0CB
:102E60005BC380917E0190917F010E5C1F4F8017A4
:102E700091070CF051C380917A0190917B01E09011
:102E80007801F0907901470122E3821A91088816AF
:102E900099060CF041C380917A0190917B01A2E3E5
:102EA000EA0EF11C8E159F050CF036C368E070E049
:102EB00080E090E00E94F809B1E0CB1AD10809F057
:102EC000BECF0E942D0260EB7FEF80E590E00E9474
:102ED000EF0037E4C32ED12C0E94310280917E0195
:102EE00090917F01A816B9060CF016C380917E015F
:102EF00090917F01801791070CF00EC380917A01A9
:102F000090917B01881699060CF006C380917A0196
:102F100090917B018E159F050CF0FEC268E070E079
:102F200080E090E00E94F809E1E0CE1AD108A1F615
:102F300060E070E080E090E00E94EF008AE50E948F
:102F4000070284E60E940F020E946B0388EB9BE05D
:102F50000E94170262E370E080E090E00E94F809AE
:102F600040E050E060E070E080E090E00E94980077
:102F70000E94D90444E160E080E00E94950B0E9429
:102F8000320A60939B0170939C0180939D01909302
:102F90009E016AE570E08AE590E00E94EF004091B2
:102FA00086015091870180918401909185019C0157
:102FB00022533109241735074CF4209186013091B2
:102FC0008701C296281739070CF408C168E87FEF1B
:102FD00088E89FEF0E94EF0068EC70E080E090E0EE
:102FE0000E94F80964EC7FEF86EA9FEF0E94EF00F1
:102FF00085E594E00E94220288E790E00E94170293
:1030000087E80E9407028EE10E940F0260E570E0EF
:1030100080E090E00E94200F062F60E570E080E0E5
:1030200090E00E94200F162F60E570E080E090E0B5
:103030000E94200F462F50E0612F70E0802F90E01B
:103040000E94980064E670E080E090E00E94200F0B
:10305000162F64E670E080E090E00E94200F062FBB
:1030600064E670E080E090E00E94200F462F602F21
:10307000812F0E94950B83E3C82ED12C0E94310230
:1030800080917E0190917F0100917C0110917D01E2
:103090005801B2E3AB1AB108A816B9060CF069C220
:1030A00080917E0190917F010E5C1F4F80179107E8
:1030B0000CF05FC280917A0190917B01E0907801E1
:1030C000F09079014701E2E38E1A9108881699067B
:1030D0000CF04FC280917A0190917B01F2E3EF0EE8
:1030E000F11C8E159F050CF044C268E070E080E092
:1030F00090E00E94F809F1E0CF1AD10809F0BECFA4
:103100000E942D0260E570E080EB9FEF0E94EF00CF
:1031100027E4C22ED12C0E94310280917E01909131
:103120007F01A816B9060CF024C280917E0190910F
:103130007F01801791070CF01CC280917A01909159
:103140007B01881699060CF014C280917A01909147
:103150007B018E159F050CF00CC268E070E080E0EA
:1031600090E00E94F80921E0C21AD108A1F660E0BF
:1031700070E080E090E00E94EF008AE50E94070284
:1031800084E60E940F020E946B0388EB9BE00E9482
:10319000170262E370E080E090E00E94F80940E0EE
:1031A00050E060E070E080E090E00E9498000E94B3
:1031B000D90444E160E080E00E94950B0E94320A4D
:1031C00060939B0170939C0180939D0190939E015D
:1031D0006AE570E08AE590E00E94EF000E94E60157
:1031E000803D974088F560E070E080E090E00E94CC
:1031F000EF000E949903882329F064E670E08CE9CF
:103200009FEF04C06CE97FEF84E690E00E94EF003E
:103210006EEE72E080E090E00E94F80960E070E0FD
:1032200080E090E00E94EF000E94320A60939B01D0
:1032300070939C0180939D0190939E016AE570E0DC
:103240008AE590E00E94EF000E943D018823A9F1E9
:103250004AE050E06AE070E080E090E00E94980070
:103260007092060140E050E060E070E080E090E0A5
:103270000E9498008091060190E00E94B50B40E00A
:103280006AE08AE00E94950B64E670E080E090E0DE
:103290000E94F80960E070E080E090E00E94EF009A
:1032A0000E942D020E943D018111FCCF64E670E076
:1032B00080E090E00E94F80903C00E948D0134CDA7
:1032C0006CE070E080E090E00E94200F623009F432
:1032D00052C0633009F464C0613009F075C068E819
:1032E0007FEF88E89FEF0E94EF006CE271E080E0E2
:1032F00090E00E94F80960E070E080E090E00E94B9
:10330000EF006FEF70E081E09FEF0E94EF0044E676
:1033100050E060E070E084E690E00E94980046E9AA
:1033200062E380E00E94950B08EE13E0C8010E9462
:10333000220264E670E080E090E00E94F8090C59F7
:103340001F4F043080E1180789F760E070E080E0EB
:1033500090E00E94EF000E942D0240E050E060E00B
:1033600070E080E090E00E94980044E160E080E03E
:103370000E94950B29C068E87FEF88E89FEF0E94C4
:10338000EF006CE271E080E090E00E94F80960E0FC
:1033900070E080E090E00E94EF000E94330614C0CD
:1033A00064EC7FEF84EC9FEF0E94EF0066E970E031
:1033B00080E090E00E94F80960E070E080E090E03A
:1033C0000E94EF000E948D0562E370E080E090E0D3
:1033D0000E94F8090E94320A60939B0170939C013D
:1033E00080939D0190939E0160E070E080E090E00A
:1033F0000E94EF0084CC14E080910601843009F033
:1034000077C040E06AE08AE00E94950B0E94760255
:1034100020918201309183018091800190918101FE
:10342000821793072CF46CE870E088E290E004C007
:1034300068E270E08CE890E00E94EF000E94E601F4
:10344000803D974008F560E070E080E090E00E94E9
:10345000EF000E949903882329F064E670E08CE96C
:103460009FEF04C06CE97FEF84E690E00E94EF00DC
:103470006EEE72E080E090E00E94F80960E070E09B
:1034800080E090E00E94EF000E943D01882339F126
:103490004AE050E06AE070E080E090E00E9498002E
:1034A00060E070E080E090E00E94EF000E942D025A
:1034B000109306018091060190E00E94B50B64E62E
:1034C00070E080E090E00E94F8090E943D018111C7
:1034D000FCCF64E670E080E090E00E94F8090E9472
:1034E0008D0162E370E080E090E00E94F80984CFF3
:1034F00080919A01882331F00E943D018823E1F3F5
:103500000E949D020E94B5073FC8C616D706E8066E
:10351000F90608F050C957C962E370E082E390E011
:103520000E94EF0068EC70E080E090E00E94F809F3
:1035300060E070E080E090E00E94EF000E942D02C9
:103540000E94D9048AE50E94070284E60E940F02C5
:103550000E946B0388EB9BE00E94170240E050E062
:1035600060E070E080E090E00E94980044E164E157
:1035700003CD62E370E082E390E00E94EF0068EC2C
:1035800070E080E090E00E94F80960E070E080E088
:1035900090E00E94EF000E942D020E94D9048AE56B
:1035A0000E94070284E60E940F020E946B0388EBD0
:1035B0009BE00E94170240E050E060E070E080E095
:1035C00090E00E94980044E164E1F5CD8091EB0326
:1035D0009091EC03009711F00E944C1D60E08091E7
:1035E000E9030C9438091092F7021092F60288EE63
:1035F00093E0A0E0B0E08093F8029093F902A093EA
:10360000FA02B093FB0229E131E03093F5022093F6
:10361000F40225EC30E0309301032093000324EC06
:1036200030E0309303032093020320EC30E030932A
:1036300005032093040321EC30E03093070320932B
:10364000060322EC30E0309309032093080326ECB4
:1036500030E030930B0320930A0310920D03109275
:103660000E0310920F031092100310929403109205
:1036700093038093950390939603A0939703B0933D
:10368000980389E291E090939203809391031092C2
:10369000A3031092A4031092A5031092A603109204
:1036A000A7031092A8031092A9031092AA031092E4
:1036B000AB031092AC031092AD031092AE031092C4
:1036C000AF031092B0031092B1031092B2038BE1DA
:1036D00090E09093E6038093E50381E590E090937A
:1036E000E8038093E70387E08093E9031092EA03FD
:1036F00083E08093F0031092F1031092F203109292
:10370000F3031092F403EBECF0E0E491F0E0EE0F41
:10371000FF1FE654FF4F859194919093F603809399
:10372000F503EDEAF0E0E491E093F70381E590E042
:103730000E94B71C9093EC038093EB03009729F051
:1037400021E5FC0111922A95E9F781E08093ED03D0
:103750001092EE0382E08093EF0308958F929F9280
:10376000AF92BF92CF92DF92EF92FF92CF93DF930F
:10377000EC01688179818A819B81611571058105E0
:10378000910521F464E279ED8BE597E02DE133EFCB
:1037900041E050E00E946B1C49015A019B01AC01C1
:1037A000A7EAB1E40E948A1C6B017C01ACEEB4EF85
:1037B000A50194010E94981CDC01CB018C0D9D1D7C
:1037C000AE1DBF1DB7FF03C00197A109B048888394
:1037D0009983AA83BB83BC01CD019F77DF91CF91F1
:1037E000FF90EF90DF90CF90BF90AF909F908F9021
:1037F00008950E94AE1B08958BE091E00E94AE1BDD
:10380000089560930B0170930C0180930D019093C8
:103810000E0108950E940F1C08F481E00895990F8D
:103820000008550FAA0BE0E8FEEF16161706E8078A
:10383000F907C0F012161306E407F50798F0621BAB
:10384000730B840B950B39F40A2661F0232B242B80
:10385000252B21F408950A2609F4A140A6958FEF9F
:10386000811D811D0895F999FECF92BD81BDF89A01
:10387000992780B50895262FF999FECF1FBA92BDDA
:1038800081BD20BD0FB6F894FA9AF99A0FBE019641
:103890000895A1E21A2EAA1BBB1BFD010DC0AA1F91
:1038A000BB1FEE1FFF1FA217B307E407F50720F0A9
:1038B000A21BB30BE40BF50B661F771F881F991F24
:1038C0001A9469F760957095809590959B01AC016D
:1038D000BD01CF010895052E97FB1EF400940E94B0
:1038E000821C57FD07D00E94491C07FC03D04EF4F0
:1038F0000C94821C50954095309521953F4F4F4F29
:103900005F4F089590958095709561957F4F8F4F8B
:103910009F4F08950E949D1CA59F900DB49F900DF0
:10392000A49F800D911D11240895B7FF0C948A1C4B
:103930000E948A1C821B930B0895A29FB001B39F23
:10394000C001A39F700D811D1124911DB29F700DA8
:10395000811D1124911D08950E940F1C08F48FEF02
:103960000895EE0FFF1F0590F491E02D0994CF9379
:10397000DF938230910510F482E090E0E091FB0348
:10398000F091FC0320E030E0C0E0D0E0309711F18E
:103990004081518148175907C0F04817590761F411
:1039A00082819381209719F09B838A832BC0909307
:1039B000FC038093FB0326C02115310519F0421743
:1039C000530718F49A01BE01DF01EF010280F38171
:1039D000E02DDCCF2115310509F1281B390B2430EE
:1039E000310590F412968D919C9113976115710594
:1039F00021F0FB019383828304C09093FC038093A6
:103A0000FB03FD01329644C0FD01E20FF31F8193D9
:103A10009193225031092D933C933AC02091F903A0
:103A20003091FA03232B41F42091110130911201BE
:103A30003093FA032093F90320910F013091100184
:103A40002115310541F42DB73EB740911301509136
:103A50001401241B350BE091F903F091FA03E217EE
:103A6000F307A0F42E1B3F0B2817390778F0AC01A1
:103A70004E5F5F4F2417350748F04E0F5F1F50937E
:103A8000FA034093F9038193919302C0E0E0F0E0E0
:103A9000CF01DF91CF9108950F931F93CF93DF93C1
:103AA000009709F48CC0FC013297138212820091B6
:103AB000FB031091FC030115110581F42081318174
:103AC000820F931F2091F9033091FA0328173907C9
:103AD00079F5F093FA03E093F90371C0D80140E05F
:103AE00050E0AE17BF0750F412962D913C911397FA
:103AF000AD012115310509F1D901F3CF9D01DA019D
:103B00003383228360817181860F971F8217930709
:103B100069F4EC0128813981260F371F2E5F3F4F52
:103B2000318320838A819B8193838283452B29F46F
:103B3000F093FC03E093FB0342C01396FC93EE93D7
:103B40001297ED01499159919E01240F351FE217FB
:103B5000F30771F480819181840F951F029611966D
:103B60009C938E938281938113969C938E9312974C
:103B7000E0E0F0E0D80112968D919C9113970097A8
:103B800019F0F8018C01F6CF8D919C9198012E5F70
:103B90003F4F820F931F2091F9033091FA032817AA
:103BA000390769F4309729F41092FC031092FB0353
:103BB00002C0138212821093FA030093F903DF917B
:103BC000CF911F910F91089581E090E0F8940C94AB
:103BD000E91D10E0CDE6D0E004C0FE010E94B11C5A
:0C3BE0002196CE36D107C9F7F894FFCF2C
:103BEC00FF190000803F01E807E807010000000012
:103BFC0000FD038000000000004C071F0C1507F3AC
:103C0C000607079307000000005C081F081708034D
:103C1C0008F407F307564D4450565F317C315F561C
:103C2C004D4450560D0A00564D4450455F003A32F3
:103C3C003A007C005F564D44504500626173656CE0
:083C4C00696E653A20000900D1
:107800000C94343C0C94513C0C94513C0C94513CE1
:107810000C94513C0C94513C0C94513C0C94513CB4
:107820000C94513C0C94513C0C94513C0C94513CA4
:107830000C94513C0C94513C0C94513C0C94513C94
:107840000C94513C0C94513C0C94513C0C94513C84
:107850000C94513C0C94513C0C94513C0C94513C74
:107860000C94513C0C94513C11241FBECFEFD8E036
:10787000DEBFCDBF11E0A0E0B1E0EAE8FFE702C063
:1078800005900D92A230B107D9F712E0A2E0B1E065
:1078900001C01D92AD30B107E1F70E942D3D0C945F
:1078A000C33F0C94003C982F95959595959595958B
:1078B000905D8F708A307CF0282F295A8091C0000B
:1078C00085FFFCCF9093C6008091C00085FFFCCF60
:1078D0002093C6000895282F205DF0CF982F809127
:1078E000C00085FFFCCF9093C6000895EF92FF92F1
:1078F0000F931F93EE24FF2487018091C00087FD22
:1079000017C00894E11CF11C011D111D81E2E8164D
:1079100081EAF80687E0080780E0180770F3E09135
:107920000401F091050109958091C00087FFE9CF1E
:107930008091C6001F910F91FF90EF9008950E94D3
:10794000763C982F8091C00085FFFCCF9093C600B5
:1079500091362CF490330CF09053892F089597555D
:10796000892F08951F930E949F3C182F0E949F3CCF
:107970001295107F810F1F9108951F93182F882350
:1079800021F00E94763C1150E1F71F9108951F935A
:10799000182F0E94763C803249F0809103018F5F5E
:1079A000809303018530C1F01F9108958091C0003C
:1079B00085FFFCCF84E18093C6008091C00085FFE5
:1079C000FCCF1093C6008091C00085FFFCCF80E102
:1079D0008093C6001F910895E0910401F091050184
:1079E00009951F9108950E94763C803241F0809164
:1079F00003018F5F80930301853081F008958091AA
:107A0000C00085FFFCCF84E18093C6008091C00058
:107A100085FFFCCF80E18093C6000895E0910401CA
:107A2000F09105010995089548EC50E08823A1F0F4
:107A30002D9A28EE33E0FA013197F1F721503040CA
:107A4000D1F72D9828EE33E0FA013197F1F7215064
:107A50003040D1F7815061F708953F924F925F9285
:107A60006F927F928F929F92AF92BF92CF92DF924E
:107A7000EF92FF920F931F93CF93DF93000082E06A
:107A80008093C00080E18093C4001092C50088E11B
:107A90008093C10086E08093C2005098589A259A3E
:107AA00081E00E94143D24E1F22E9EE1E92E85E959
:107AB000D82E0FE0C02E10E1B12EAA24A394B1E479
:107AC0009B2EA6E58A2EF2E57F2EE0E26E2E79E46B
:107AD000572E63E5462E50E5352E0E94763C8033C6
:107AE000B1F18133B9F1803409F46FC0813409F404
:107AF00076C0823409F485C0853409F488C08035A5
:107B000031F1823521F1813511F1853509F485C0D6
:107B1000863509F48DC0843609F496C0843709F49B
:107B200003C1853709F472C1863709F466C08091B4
:107B300003018F5F80930301853079F6E0910401A2
:107B4000F091050109950E94763C803351F60E9420
:107B5000F33CC3CF0E94763C803249F78091C0004D
:107B600085FFFCCFF092C6008091C00085FFFCCF5E
:107B70009092C6008091C00085FFFCCF8092C60025
:107B80008091C00085FFFCCF7092C6008091C0003C
:107B900085FFFCCF6092C6008091C00085FFFCCFBE
:107BA0005092C6008091C00085FFFCCF4092C60075
:107BB0008091C00085FFFCCF3092C6008091C0004C
:107BC00085FFFCCFB092C60088CF0E94763C8638F5
:107BD00008F4BDCF0E94763C0E94F33C7ECF0E9409
:107BE000763C803809F49CC0813809F40BC1823896
:107BF00009F430C1883909F48FC080E00E94C73C85
:107C00006CCF84E10E94BD3C0E94F33C66CF85E0CE
:107C10000E94BD3C0E94F33C60CF0E94763C809362
:107C200006010E94763C809307010E94F33C55CFE9
:107C30000E94763C803309F411C183E00E94BD3C70
:107C400080E00E94C73C49CF0E94763C80930902A5
:107C50000E94763C8093080280910C028E7F809374
:107C60000C020E94763C853409F409C18091080217
:107C700090910902892B89F000E010E00E94763C87
:107C8000F801E85FFE4F80830F5F1F4F809108026D
:107C9000909109020817190788F30E94763C8032F8
:107CA00009F045CF80910C0280FFF5C0609106017C
:107CB00070910701660F771F7093070160930601AB
:107CC000A0910802B09109021097C9F0E8E0F1E034
:107CD0009B01AD014E0F5F1FF999FECF32BD21BD53
:107CE000819180BDFA9AF99A2F5F3F4FE417F5070B
:107CF00099F76A0F7B1F70930701609306018091CB
:107D0000C00085FFFCCFF092C6008091C00085FFC7
:107D1000FCCFB092C600E1CE83E00E94C73CDDCE2E
:107D200082E00E94C73CD9CE0E94763C8093090233
:107D30000E94763C80930802809106019091070191
:107D4000880F991F90930701809306010E94763C4B
:107D5000853409F49AC080910C028E7F80930C02C6
:107D60000E94763C803209F0B8CE8091C00085FF39
:107D7000FCCFF092C600A0910802B09109021097C2
:107D8000C1F180910C02082F0170182F1695117007
:107D9000E0910601F0910701AF014F5F5F4FBA011B
:107DA00020E030E00023B1F4112339F49491809164
:107DB000C00085FFFCCF9093C6002F5F3F4FCB01E3
:107DC0000196FA012A173B0780F4BC014F5F5F4F11
:107DD000002351F3F999FECFF2BDE1BDF89A90B5B9
:107DE0008091C00085FFFCCFE6CF709307016093C0
:107DF00006018091C00085FDE5CE8091C00085FF21
:107E0000F8CFE0CE81E00E94C73C67CE0E94763C6E
:107E1000803209F08CCE8091C00085FFFCCFF092BB
:107E2000C6008091C00085FFFCCFE092C600809123
:107E3000C00085FFFCCFD092C6008091C00085FFB6
:107E4000FCCFC092C6008091C00085FFFCCFB092ED
:107E5000C60043CE80E10E94C73C3FCE0E94763CE4
:107E60000E94763C182F0E94763C112309F483C0AF
:107E7000113009F484C08FE00E94C73C2ECE80915F
:107E80000C02816080930C02F1CE80910C02816023
:107E900080930C0265CF809107018823880F880B9F
:107EA0008A2180930B028091060190910701880F2F
:107EB000991F90930701809306018091080280FF2B
:107EC00009C08091080290910902019690930902DD
:107ED00080930802F894F999FECF1127E0910601EA
:107EE000F0910701C8E0D1E0809108029091090269
:107EF000103091F40091570001700130D9F303E084
:107F000000935700E8950091570001700130D9F3B4
:107F100001E100935700E8950990199000915700EE
:107F200001700130D9F301E000935700E8951395F3
:107F3000103498F011270091570001700130D9F3E7
:107F400005E000935700E89500915700017001305B
:107F5000D9F301E100935700E8953296029709F0B2
:107F6000C7CF103011F00296E5CF11248091C000E8
:107F700085FFC5CEC8CE8EE10E94C73CAECD85E957
:0A7F80000E94C73CAACDF894FFCF81
:027F8A00800075
:040000030000780081
:00000001FF